:100000000C94EE000C940D010C940D010C940D0158
:100010000C940D010C940D010C940D010C940D0128
:100020000C940D010C94A5070C940D010C940D017A
:100030000C940D010C940D010C940D010C940D0108
:100040000C940D010C940D010C948E020C940D0176
:100050000C940D010C940D010C940D010C94060DE3
:100060000C940D010C940D010C940D010C940D01D8
:100070000C940D010C940D010C940D010C940D01C8
:100080000C940D010C940D010C940D016E616E0029
:10009000696E66006364696E6F70737578585B652E
:1000A000666745464700616E006E66696E697479E1
:1000B00000CDCCCC3D0AD7233C17B7D13877CC2B19
:1000C000329595E6241FB14F0A000020410000C878
:1000D0004200401C4620BCBE4CCA1B0E5AAEC59DF9
:1000E0007400407A10F35A00A0724E18090010A54F
:1000F000D4E80000E87648170000E40B5402000042
:10010000CA9A3B000000E1F50500008096980000C7
:100110000040420F000000A08601000000102700F0
:10012000000000E803000000006400000000000A76
:1001300000000000000100000000002C76D888DCE0
:10014000674F0823DFC1DFAE59E1B1B796E5E3E4BD
:1001500053C63AE651997696E8E6C28426EB898C36
:100160009B62ED407C6FFCEFBC9C9F40F2BAA56F98
:10017000A5F490055A2AF75C936B6CF9676DC11B67
:10018000FCE0E40D47FEF520E6B500D0ED902E032F
:1001900000943577050080841E080000204E0A0078
:1001A0000000C80C333333330F986E12831141EFC4
:1001B0008D2114893BE65516CFFEE6DB18D1844B22
:1001C000381BF77C1D901DA4BBE424203284725E92
:1001D000228100C9F124ECA1E53D270011241FBEB6
:1001E000CFEFD0E1DEBFCDBF15E0A0E0B1E0EAEE99
:1001F000F2EA00E00BBF02C007900D92A63BB107E8
:10020000D9F71DE0A6EBB5E001C01D92AE31B107F4
:10021000E1F70E94CF0B0C9473510C9400001F93D4
:10022000182F8A3019F48DE00E940F015D9BFECFDC
:100230001CB980E090E01F9108951F93BC015F9B63
:10024000FECF1CB1812F0E940F01812F90E01F91E2
:1002500008958CB95D9BFECF0895E0E9F0E0208120
:10026000292B208399B1982B99B9579A8AB1886123
:100270008AB95298E5E9F0E08081866080838081C8
:10028000877F808386EC93E090931B0D80931A0DFB
:100290009093190D8093180D0895E8E9F0E02081FE
:1002A000292B2083E9E9F0E09081982B9083EAE9FB
:1002B000F0E0808188608083EDE9F0E080818E62EB
:1002C0008083089585B5886085BD85B5836085BDCB
:1002D00087B7806887BF8BEA83BD08959091020736
:1002E000892F8551883048F494519093FE0681E01F
:1002F0008093350680E091E03DC0809100079091A9
:10030000FF06892B90910107892B29F42BC08AE0E5
:1003100091E00E94925080919C0390E001966AE0E7
:1003200070E00E94964EFC0180919D0390E0E817DA
:10033000F90769F39091000780E020910107820F8F
:10034000911DE0939C03F0E0EE0FFF1FDF01A2562A
:10035000BC4F2091FF062C9311961C92EE55FC4F3A
:100360009183808380910207809333061092350633
:1003700081E291E00E9492500895282F80913406E6
:10038000823021F1833030F4882359F0813009F034
:10039000C4C021C0833009F453C0843009F0BDC00B
:1003A00084C01092E1051092E0051092DF051092D2
:1003B000DE051092DB051092DA051092DD05109231
:1003C000DC052D3F09F0A9C082E06CC0222309F4AE
:1003D0009FC081E067C08091E0059091E1050097A2
:1003E000A9F48091DC059091DD05820F911D909319
:1003F000DD058093DC051092DA052093DB0581E0B2
:1004000090E09093E1058093E0050895019709F04D
:100410007FC030E08091DC059091DD05820F931F55
:100420009093DD058093DC058091DA059091DB05E2
:10043000822B932B9093DB058093DA0583E032C007
:10044000A091DE05B091DF058091DA059091DB0582
:100450000197A817B907A0F48091DC059091DD05FC
:10046000820F911D9093DD058093DC05FD01E15025
:10047000F94F20831196B093DF05A093DE05089510
:10048000A817B90709F044C08091DC059091DD05FB
:10049000820F911D9093DD058093DC05A150B94F2B
:1004A0002C9384E08093340608958091DC058217B4
:1004B00091F58DB79EB70A970FB6F8949EBF0FBE01
:1004C0008DBFEDB7FEB731968BE291E0ADB7BEB709
:1004D00012969C938E9311978091FF0682831382CC
:1004E000809100078483158280910107868317829B
:1004F00080910207808711860E9479508DB79EB740
:100500000A960FB6F8949EBF0FBE8DBF0E946E0173
:100510001092340608951092340608951F920F9297
:100520000FB60F920BB60F9211242F933F934F9358
:100530005F936F937F938F939F93AF93BF93EF934B
:10054000FF938CB10E94BD01FF91EF91BF91AF91DC
:100550009F918F917F916F915F914F913F912F91DB
:100560000F900BBE0F900FBE0F901F9018952F92FB
:100570003F924F925F926F927F928F929F92AF9233
:10058000BF92CF92DF92EF92FF920F931F93DF9370
:10059000CF93CDB7DEB7C052D1400FB6F894DEBFCF
:1005A0000FBECDBFB82E45E0841709F479C04817B7
:1005B00098F052E08517A9F1581728F081E0B81695
:1005C00009F0B3C019C093E0891709F43FC0A4E053
:1005D0008A1709F0AAC04FC0B7E08B1709F48AC088
:1005E0008B1708F472C0E8E08E1709F49EC0F9E09A
:1005F0008F1709F09AC093C000D000D000D0EDB79B
:10060000FEB73196CE010196ADB7BEB712969C9358
:100610008E9311978CE391E09383828381E491E040
:1006200098C000D000D000D0EDB7FEB73196CE0113
:100630000196ADB7BEB712969C938E9311978CE33B
:1006400091E09383828386E491E083C000D000D060
:1006500000D0EDB7FEB73196CE010196ADB7BEB76B
:1006600012969C938E9311978CE391E093838283EF
:100670008BE491E06EC000D000D000D0EDB7FEB7A3
:100680003196CE010196ADB7BEB712969C938E936C
:1006900011978CE391E09383828380E591E059C0C8
:1006A00000D000D000D0EDB7FEB73196CE01019654
:1006B000ADB7BEB712969C938E9311978CE391E0E1
:1006C0009383828385E591E044C000D000D000D0C0
:1006D000EDB7FEB73196CE010196ADB7BEB7129613
:1006E0009C938E9311978CE391E0938382838AE5A8
:1006F00091E02FC000D000D000D0EDB7FEB731960A
:10070000CE010196ADB7BEB712969C938E9311970A
:100710008CE391E0938382838FE591E01AC081E0BE
:100720008093D9058093D80520C000D000D000D098
:10073000EDB7FEB73196CE010196ADB7BEB71296B2
:100740009C938E9311978CE391E09383828384E64C
:1007500091E0958384830E94C750EDB7FEB736962B
:100760000FB6F894FEBF0FBEEDBF8091D905882368
:1007700009F0B2C084E060E448E09E012F5F3F4F83
:100780000E94791184E068E443E029E631E00E94A8
:10079000791184E068EC47E020E005E00E94E31076
:1007A000E6EBCE2EE5E0DE2E7FE0A72EB12CAC0EE0
:1007B000BD1E750100E010E06DE6862E61E0962E0C
:1007C000D6018D919D916D01F701819391937F01E8
:1007D00000D000D000D0EDB7FEB73196ADB7BEB7B0
:1007E00012969C928E921197138302839583848331
:1007F0000E9479500F5F1F4FEDB7FEB736960FB6C8
:10080000F894FEBF0FBEEDBF01311105C9F6CFA4AC
:10081000D8A800E010E055E0E52EF12CEC0EFD1E0E
:1008200040E8642E41E0742E3AE7832E31E0932EA7
:1008300000311105E9F400D000D000D0EDB7FEB7CB
:100840003196ADB7BEB71296FC92EE921197938295
:100850008282D582C4820E94C750EDB7FEB7369619
:100860000FB6F894FEBF0FBEEDBF40E050E014C0DD
:1008700000D000D000D0EDB7FEB73196ADB7BEB70F
:100880001296FC92EE92119773826282D5018D913D
:100890009C9195838483DFCFF701E40FF51F80815E
:1008A000882339F04F5F5F4F4A305105A9F744E084
:1008B00050E084E060E097010E9479110F5F1F4FC4
:1008C00042E050E0A40EB51E0131110509F0B0CF91
:1008D00081E08093D90516C2813009F0CCC18091A6
:1008E000D805882309F0C7C126EB222E25E0322E39
:1008F000610191E3E92EF12CEC0EFD1E01E110E007
:100900008DE6882E81E0982ED6018D919D916D0106
:10091000F701819391937F0100D000D000D0EDB713
:10092000FEB73196ADB7BEB712969C928E921197D4
:1009300013830283958384830E9479500F5F1F4F36
:10094000EDB7FEB736960FB6F894FEBF0FBEEDBFFB
:1009500002321105C9F60B2D10E000D000D084E85A
:1009600091E0ADB7BEB712969C938E9311971496F3
:100970001C930E9313970E947950B1E08B2E912C0B
:100980000F900F900F900F9028010894411C511C5C
:10099000E7E5F0E0EC0FFD1FB296C15EDE4FF98394
:1009A000E883CF51D140C1C0D7014D915C91EEEDAC
:1009B000FFEFEE0EFF1ED7012D913C91E2E2F0E039
:1009C000EE0EFF1E4217530778F0421B530B849E16
:1009D000C001859E900D949E900D1124B2010E943D
:1009E000824E260F371F10C0C901841B950BFC01D6
:1009F0008E9EC0018F9E900D9E9E900D1124B2017F
:100A00000E94824E261B370BD5012D933C93F50196
:100A10000081118100D000D000D0EDB7FEB7319633
:100A20004CE851E0ADB7BEB712965C934E93119768
:100A3000D382C282158304830E9479508DB79EB7FA
:100A400006960FB6F8949EBF0FBE8DBF90E1C916F3
:100A5000D10419F500D000D000D0EDB7FEB7319623
:100A600045E050E04C0F5D1FADB7BEB712965C93EA
:100A70004E9311978AE791E09383828315830483D1
:100A80000E94C750ADB7BEB716960FB6F894BEBF5A
:100A90000FBEADBF40E050E013C000D000D000D08A
:100AA000EDB7FEB7319645E050E04C0F5D1FADB796
:100AB000BEB712965C934E93119780E891E0DCCF1D
:100AC000E5E0F0E0EC0FFD1FE40FF51F80818823C7
:100AD00039F04F5F5F4F4A30510591F744E050E0E5
:100AE00084E060E09E012B5F3F4F0E9479110894E3
:100AF000C11CD11CE2E0F0E0EE0EFF1EAE0EBF1EE8
:100B0000F1E1CF16D10409F04FCFD3011D921D9210
:100B10003D01C15EDE4FE881F981CF51D140AE1772
:100B2000BF0799F70894811C911C8414950471F0F7
:100B3000A7E56A2E712C6C0E7D1EF1E3EF2EF12CD1
:100B4000EC0EFD1E5301CC24DD242ECFEFE0CE2E83
:100B5000D12CCC0EDD1E760100E010E07DE6A72E44
:100B600071E0B72ED1018D919D911D01F701819307
:100B700091937F0100D000D000D0EDB7FEB7319641
:100B8000ADB7BEB71296BC92AE9211971383028393
:100B9000958384830E9479500F5F1F4FEDB7FEB796
:100BA00036960FB6F894FEBF0FBEEDBF01311105AA
:100BB000C9F6AFA4B8A800E010E065E0E62EF12C7D
:100BC000EC0EFD1E50E8652E51E0752E4AE7842E8E
:100BD00041E0942E00311105E9F400D000D000D09E
:100BE000EDB7FEB73196ADB7BEB71296FC92EE9256
:100BF000119793828282B582A4820E94C750EDB77A
:100C0000FEB736960FB6F894FEBF0FBEEDBF40E0BC
:100C100050E014C000D000D000D0EDB7FEB7319640
:100C2000ADB7BEB71296FC92EE92119773826282B4
:100C3000D6018D919C9195838483DFCFF701E40FDA
:100C4000F51F8081882339F04F5F5F4F4A3051058F
:100C5000A9F744E050E084E060E097010E94791138
:100C60000F5F1F4F42E050E0C40ED51E0131110549
:100C700009F0B0CF47C08091D805813009F042C05B
:100C800000D000D000D0EDB7FEB731968E010B5FDB
:100C90001F4FADB7BEB712961C930E93119780EA03
:100CA00091E09383828383E290E0958384830E9422
:100CB000C75040E050E0EDB7FEB736960FB6F89457
:100CC000FEBF0FBEEDBFF801E40FF51F8081882342
:100CD00039F04F5F5F4F4A305105A9F744E050E0CB
:100CE00084E060E09E012B5F3F4F0E94791184E019
:100CF00068EC41E020E000E00E94E31083EA91E02C
:100D00000E949250C05EDE4F0FB6F894DEBF0FBE59
:100D1000CDBFCF91DF911F910F91FF90EF90DF90AA
:100D2000CF90BF90AF909F908F907F906F905F908B
:100D30004F903F902F900895EF92FF920F931F9343
:100D4000CF93DF93182F092F20919A0330919B03A3
:100D500080919803909199032817390709F45EC090
:100D600080911E06813009F058C080EB91E00E940E
:100D7000925080919A0390919B0360919603709199
:100D8000970301960E94824E90939B0380939A034F
:100D900000D089EB91E0EDB7FEB7928381830E948A
:100DA0007950212F302FC9018C01C0E0D0E00F9085
:100DB0000F9082ECE82E81E0F82E80919A039091BA
:100DC0009B03FC01B4E0EE0FFF1FBA95E1F7E80FBB
:100DD000F91FEC0FFD1FEE0FFF1FED5FF84F808135
:100DE0009181F801819391938F0100D000D0EDB7EC
:100DF000FEB7F282E182948383830E947950219628
:100E00000F900F900F900F90C131D105B1F68AE08D
:100E100090E00E948B5080E002C001C081E0DF9131
:100E2000CF911F910F91FF90EF900895DF93CF9393
:100E3000CDB7DEB7E4970FB6F894DEBF0FBECDBFD7
:100E4000CE0143960E949C06882309F075C0DE01FE
:100E50001196E4EDF3E082E101900D928150E1F70B
:100E600087B3806E87BBC69AC798C598DE01539634
:100E7000FE013F9740E050E07FE76FEB49305105BE
:100E8000F4F06093620080919B0085FFFCCF80812D
:100E9000805880939C0080919B0085FFFCCF2D9112
:100EA0003C911197C901880F892F881F990B919543
:100EB00080939C0080919B0085FFFCCF1DC07093A8
:100EC000620080919B0085FFFCCF808980588093D1
:100ED0009C0080919B0085FFFCCF2D913C91119748
:100EE000C901880F892F881F990B919580939C00C9
:100EF00080919B0085FFFCCF822F8F7780939C0091
:100F00004F5F5F4F129632964131510509F0B6CFCF
:100F100020E030E0AE014D5E5F4FF901EA54FA4F38
:100F2000DA01A20FB31F8D919C91918380832E5F74
:100F30003F4F2232310589F7E4960FB6F894DEBFB1
:100F40000FBECDBFCF91DF9108951F920F920FB6C4
:100F50000F920BB60F9211242F933F934F935F93F1
:100F60006F937F938F939F93AF93BF93EF93FF9371
:100F70008091570890915808019690935808809353
:100F80005708885E934030F00E9416071092580868
:100F900010925708FF91EF91BF91AF919F918F9160
:100FA0007F916F915F914F913F912F910F900BBE69
:100FB0000F900FBE0F901F901895EF92FF920F9316
:100FC0001F93CF93DF93182F092FE0919603F09191
:100FD000970380919803909199030196BF010E9415
:100FE000824E9C01909399038093980380919A0379
:100FF00090919B038217930799F4009731F43197EE
:10100000F0939903E09398035BC001979093990341
:101010008093980387EC91E00E94925081E050C049
:1010200084ED91E00E94925000D08BED91E0ADB73D
:10103000BEB712969C938E9311970E947950212FE0
:10104000302FC9018C01C0E0D0E00F900F9064EE0A
:10105000E62E61E0F62E8091980390919903FC01B1
:1010600054E0EE0FFF1F5A95E1F7E80FF91FEC0F60
:10107000FD1FEE0FFF1FED5FF84FD8018D919C9182
:1010800011979183808300D000D0EDB7FEB7F28234
:10109000E1828D919D918D01948383830E9479508B
:1010A00021960F900F900F900F90C131D10599F6B6
:1010B0008AE090E00E948B5081E080931E0680E0E1
:1010C000DF91CF911F910F91FF90EF9008950F93B3
:1010D0001F93DF93CF93CDB7DEB7A2970FB6F894E7
:1010E000DEBF0FBECDBF8C01DC012C91222309F4A1
:1010F0009CC000D000D0EDB7FEB7319689EE91E0EC
:10110000ADB7BEB712969C938E931197228313822C
:101110000E947950F8012081822F8B500F900F9000
:101120000F900F90883000F500D000D085EF91E04F
:10113000ADB7BEB712969C938E931197822F90E015
:101140000A9714969C938E9313970E9479500F9050
:101150000F900F900F90F80180818A500E94B70283
:1011600084E192E00E949250D8012C91822F81500C
:101170008A30E8F400D000D0EDB7FEB7319680E4B5
:1011800092E0ADB7BEB712969C938E9311972283CF
:1011900013820E9479500F900F900F900F90F801DA
:1011A00080810E94B7028EE592E00E949250D801A1
:1011B0008C91833161F482E892E00E949250F801B0
:1011C00080810E94B7028DE992E00E949250D8017E
:1011D0008C918F3141F58AEC92E00E949250DE01B1
:1011E0001196E6EEF3E082E201900D928150E1F774
:1011F00020E030E0AE014F5F5F4FF901EA54FA4F53
:10120000DA01A20FB31F8D919C91918380832E5F91
:101210003F4F2232310589F7CA010E94DD078CED6C
:1012200092E00E949250F8011082A2960FB6F894B4
:10123000DEBF0FBECDBFCF91DF911F910F910895FB
:101240002F923F924F925F926F927F929F92AF92B6
:10125000BF92CF92DF92EF92FF920F931F93DF9393
:10126000CF93CDB7DEB7C454D0400FB6F894DEBFED
:101270000FBECDBF082F88EF92E00E94925000D0A1
:1012800000D0EDB7FEB7319683E093E0ADB7BEB7BF
:1012900012969C938E931197028313820E94795029
:1012A0000F900F900F900F90043009F453C0053049
:1012B00040F4023029F10330C0F5013009F09EC03E
:1012C0000AC0063009F470C0063008F458C0073070
:1012D00009F094C07EC000D000D000D0EDB7FEB7BA
:1012E0003196CE010196ADB7BEB712969C938E9300
:1012F00011978CE391E09383828381E491E092C023
:1013000000D000D000D0EDB7FEB73196CE010196E7
:10131000ADB7BEB712969C938E9311978CE391E074
:101320009383828386E491E07DC000D000D000D01A
:10133000EDB7FEB73196CE010196ADB7BEB71296A6
:101340009C938E9311978CE391E0938382838BE43B
:1013500091E068C000D000D000D0EDB7FEB7319664
:10136000CE010196ADB7BEB712969C938E9311979E
:101370008CE391E09383828380E591E053C000D0B9
:1013800000D000D0EDB7FEB73196CE010196ADB7D3
:10139000BEB712969C938E9311978CE391E0938342
:1013A000828385E591E03EC000D000D000D0EDB74B
:1013B000FEB73196CE010196ADB7BEB712969C939B
:1013C0008E9311978CE391E0938382838AE591E079
:1013D00029C000D000D000D0EDB7FEB73196CE01C5
:1013E0000196ADB7BEB712969C938E9311978CE37E
:1013F00091E0938382838FE591E014C000D000D008
:1014000000D0EDB7FEB73196CE010196ADB7BEB7AD
:1014100012969C938E9311978CE391E09383828331
:1014200084E691E0958384830E94C750EDB7FEB7B0
:1014300036960FB6F894FEBF0FBEEDBF1092200691
:1014400010921F0684E060E448E07E010894E11CED
:10145000F11C97010E94791184E068E443E029E6D9
:1014600031E00E94791184E068EC4FEF20E001E068
:101470000E94E310992425E0422E512C4C0E5D1E53
:101480009FE0692E712C6C0E7D1E83E2282E312C7C
:101490002C0E3D1E93C00894E11CF11C84E060E01A
:1014A00041E098010E94D10FD8018C91C82EDD2413
:1014B000B3E2CB16D10409F471C00F5F1F4FE0E215
:1014C000CE16D10441F7F201EE0DFF1D1082870107
:1014D00001501040D2015301F30160E070E02FC0D1
:1014E0009C91892F80538A30E8F4892F90E0C0972F
:1014F0009183808340E050E011C0808191819C0104
:10150000220F331F220F331F220F331F880F991F03
:10151000280F391F318320834F5F5F4F40175107DA
:1015200064F307C09D3011F09A3019F41C921182B7
:1015300010826F5F7F4F01501040119632966E15EA
:101540007F0574F240911F065091200620E030E0A4
:1015500008C0D5018D919D915D01480F591F2F5FE6
:101560003F4F2E153F05ACF340931F0650932006C6
:10157000E92DF0E0EE0FFF1F81E090E08C0F9D1F42
:10158000E80FF91F53A342A3939491E1991631F404
:10159000C1010E94DD078823D9F799241092200603
:1015A00010921F06F201D30111921D921D92E615B1
:1015B000F705D1F7A3E2CA16D10421F08201EE2487
:1015C000FF246CCF84E068EC4FEF20E000E00E9445
:1015D000E3108CE193E00E949250CC5BDF4F0FB69A
:1015E000F894DEBF0FBECDBFCF91DF911F910F9159
:1015F000FF90EF90DF90CF90BF90AF909F907F9043
:101600006F905F904F903F902F9008958F929F9290
:10161000AF92BF92CF92DF92EF92FF920F931F9300
:10162000DF93CF93CDB7DEB7A2970FB6F894DEBFA6
:101630000FBECDBF80913506882309F063C06E01CF
:101640000894C11CD11C82E2D6011D928A95E9F74B
:1016500046016BE2A62E63E0B62E4DC0892F90E0C6
:1016600001966AE070E00E94964E482F80939D0399
:1016700020E030E0F401E20FF31FD901AA54BA4F81
:101680008D919C91918380832E5F3F4F2232310553
:1016900089F7E42FF0E0EE0FFF1FDF01AE55BC4FDE
:1016A0000D911C91E256FC4F8081E82EFF2400D062
:1016B00000D000D0EDB7FEB73196ADB7BEB71296E9
:1016C000BC92AE921197F382E282158304830E944A
:1016D0007950EE0CFF1CEC0CFD1CF701118300830C
:1016E0008DB79EB706960FB6F8949EBF0FBE8DBFFE
:1016F000C6010E94DD0790919D0380919C0398177D
:1017000009F0ACCF809135068130B1F52091FE060D
:10171000222391F100D000D0EDB7FEB731968EE3D1
:1017200093E0ADB7BEB712969C938E931197228328
:1017300013820E9479500F900F900F900F9080911C
:10174000FE060E94200900D000D0EDB7FEB731960A
:101750008FE593E0ADB7BEB712969C938E93119729
:101760008091FE06828313820E9479501092FE06B9
:101770000F900F900F900F90A2960FB6F894DEBFC7
:101780000FBECDBFCF91DF911F910F91FF90EF90D2
:10179000DF90CF90BF90AF909F908F90089587B3C8
:1017A000806E87BBC69AC798C5988FEF80936100FB
:1017B0000E94620185E090E00E942D0185E090E0AA
:1017C0000E944D01789481E48CB95D9BFECF8F5FC0
:1017D0008535D1F783E893E00E94925083E396E049
:1017E0000E9467080E94060BF9CF1F93182F8A30BA
:1017F00019F48DE00E94F50B5D9BFECF1CB980E0D3
:1018000090E01F9108951F93BC015F9BFECF1CB118
:10181000812F0E94F50B812F90E01F910895109267
:10182000900081E189B98AB188618AB9E5E9F0E07F
:1018300080818660808387B3806E87BB88E094E078
:1018400090931B0D80931A0D9093190D8093180D92
:1018500080E00895922F483008F0A4C08A3C79F1C6
:101860008B3C30F4883C71F0893C09F09BC018C077
:101870008C3C09F45CC08C3C08F43DC08D3C09F004
:1018800091C071C088B130E002C0220F331F4A9569
:10189000E2F7962F922360958623982B98B90DC076
:1018A00080B530E002C0220F331F4A95E2F7962F31
:1018B000922360958623982B90BD20E074C027B1B9
:1018C000E92FF0E002C0EE0FFF1F4A95E2F7262352
:1018D00030E0862F90E08E239F232817390711F4DC
:1018E00020E001C023E087B1962F9E2360958623D8
:1018F000982B97B958C026B1E92FF0E002C0EE0F3F
:10190000FF1F4A95E2F7262330E0862F90E08E23D2
:101910009F232817390711F420E001C023E086B186
:10192000962F9E2360958623982B96B93CC022B1B2
:10193000E92FF0E002C0EE0FFF1F4A95E2F72623E1
:1019400030E0862F90E08E239F232817390711F46B
:1019500020E001C022E082B1962F9E23609586236D
:10196000982B92B920C020916100E92FF0E002C0CD
:10197000EE0FFF1F4A95E2F7262330E0862F90E016
:101980008E239F232817390711F420E001C022E09D
:1019900080916100962F9E2360958623982B9093CB
:1019A000610001C021E0822F0895483088F4883C0E
:1019B00079F488B130E002C0220F331F4A95E2F774
:1019C000962F922360958623982B98B980E00895EE
:1019D00081E00895F901483068F4883C59F488B1F1
:1019E000862390E002C0959587954A95E2F780831B
:1019F00080E0089581E00895882311F081E0089542
:101A000070935A086093590880E008951F920F92CE
:101A10000FB60F920BB60F9211242F933F934F9353
:101A20005F936F937F938F939F93AF93BF93EF9346
:101A3000FF93E0915908F0915A080995FF91EF91B1
:101A4000BF91AF919F918F917F916F915F914F91D6
:101A50003F912F910F900BBE0F900FBE0F901F90D4
:101A60001895922F483008F0C0C08A3C09F44AC04B
:101A70008B3C30F4883C71F0893C09F0B6C026C03C
:101A80008C3C09F477C08C3C08F458C08D3C09F0BC
:101A9000ACC08CC02AB3E92FF0E002C0EE0FFF1FEC
:101AA0004A95E2F7262330E0862F90E08E239F238D
:101AB0002817390711F420E001C022E08AB3962FDD
:101AC0009E2360958623982B9ABB90C027B3E92F5D
:101AD000F0E002C0EE0FFF1F4A95E2F7262330E048
:101AE000862F90E08E239F232817390711F420E0DA
:101AF00001C022E087B3962F9E2360958623982B02
:101B000097BB74C024B3E92FF0E002C0EE0FFF1FB3
:101B10004A95E2F7262330E0862F90E08E239F231C
:101B20002817390711F420E001C022E084B3962F72
:101B30009E2360958623982B94BB58C021B3E92F30
:101B4000F0E002C0EE0FFF1F4A95E2F7262330E0D7
:101B5000862F90E08E239F232817390711F420E069
:101B600001C022E081B3962F9E2360958623982B97
:101B700091BB3CC022B1E92FF0E002C0EE0FFF1F85
:101B80004A95E2F7262330E0862F90E08E239F23AC
:101B90002817390711F420E001C022E082B1962F06
:101BA0009E2360958623982B92B920C020916100D6
:101BB000E92FF0E002C0EE0FFF1F4A95E2F726235F
:101BC00030E0862F90E08E239F232817390711F4E9
:101BD00020E001C022E080916100962F9E23609555
:101BE0008623982B9093610001C021E0822F0895F5
:101BF000FA016130C9F58230D1F0833028F48823AE
:101C000051F0813089F50DC08430E9F08430A8F0BE
:101C1000853051F51EC08AB38F3F21F580818BBB83
:101C20001FC087B38F3FF1F4808188BB19C084B394
:101C30008F3FC1F4808185BB13C081B38F3F91F486
:101C4000808182BB0DC082B18F3F61F4808183B9F6
:101C500007C0809161008F3F29F4808180936200EA
:101C600080E0089582E0089581E00895FA016130EE
:101C700009F042C08636F1F0873628F4843651F0F8
:101C80008536D1F50FC0883629F18836D8F08936E7
:101C900099F529C08AB3882311F490E001C092E03D
:101CA00089B31FC087B3882311F490E001C092E08C
:101CB00086B317C084B3882311F490E001C092E08A
:101CC00083B30FC081B3882311F490E001C092E088
:101CD00080B307C082B1882311F490E001C092E084
:101CE00081B180830AC080916100882311F490E063
:101CF00001C092E080B1F5CF91E0892F089548307E
:101D000008F089C08230C1F1833030F4882371F04B
:101D1000813009F080C01DC0843009F452C0843085
:101D200008F43DC0853009F076C05DC05AB3562333
:101D3000561709F06EC08BB330E002C0220F331F7C
:101D40004A95E2F7952F922350955823952B9BBBEC
:101D50005EC057B35623561709F05BC088B330E016
:101D600002C0220F331F4A95E2F7952F9223509518
:101D70005823952B98BB4BC054B35623561709F0E4
:101D800048C085B330E002C0220F331F4A95E2F706
:101D9000952F922350955823952B95BB38C051B35E
:101DA00056235617B1F582B330E002C0220F331F1D
:101DB0004A95E2F7952F922350955823952B92BB85
:101DC00026C052B15623561721F583B130E002C028
:101DD000220F331F4A95E2F7952F922350955823EF
:101DE000952B93B914C0509161005623561789F46E
:101DF0008091620030E002C0220F331F4A95E2F763
:101E0000952F922350955823952B9093620080E054
:101E1000089582E0089581E00895F901483008F0BE
:101E20004BC0863601F1873630F4843661F0853652
:101E300009F042C010C0883631F18836E0F08936AA
:101E400009F03AC030C08AB3862311F420E001C003
:101E500022E089B31FC087B3862311F420E001C0BC
:101E600022E086B317C084B3862311F420E001C0BA
:101E700022E083B30FC081B3862311F420E001C0B8
:101E800022E080B307C082B1862311F420E001C0B4
:101E900022E081B1862390E002C0959587954A950E
:101EA000E2F780830AC080916100862311F420E06C
:101EB00001C022E080B1EECF21E0822F089590E0B2
:101EC000883008F091E0892F0895982F88B38560B5
:101ED00088BB87B3876087BB82E58DB981E08EB907
:101EE000983038F488B39295990F907E8F71892B32
:101EF00088BB089588B38F7188BB1DB887B3887F6E
:101F000087BB88B3887F88BB88B388BB0895EF926E
:101F1000FF920F931F93DF93CF93CDB7DEB76497F4
:101F20000FB6F894DEBF0FBECDBF7B012DB73EB715
:101F3000285030400FB6F8943EBF0FBE2DBFEDB70E
:101F4000FEB731968E010F5F1F4FADB7BEB7129629
:101F50001C930E93119726E134E0338322832DE105
:101F600034E035832483978386830E94C7502DB73E
:101F70003EB7285F3F4F0FB6F8943EBF0FBE2DBF50
:101F8000C801B7010E94322C64960FB6F894DEBFE8
:101F90000FBECDBFCF91DF911F910F91FF90EF90BA
:101FA0000895CF92DF92EF92FF920F931F93DF93EA
:101FB000CF9300D0CDB7DEB7982FF62EE42ED22ED9
:101FC000C32E8091EC05882309F4A8C080913204C7
:101FD000891711F081E0A5C0662329F490E49417D5
:101FE00010F488E09EC00E94650F1091E405113046
:101FF00049F0113028F0123009F08EC08CE091C009
:1020000089E08FC08091E505882361F48BE09DE035
:102010006DEE75E00E94870F882311F086E081C085
:102020001093E5050D2D1C2DECE4FE1681F1EF1546
:1020300038F0FF2069F0FBE4FF1609F071C036C0EC
:102040008EE4F81659F192E5F91609F069C039C025
:10205000FF2481EC9CE0B801A7019E012F5F3F4F58
:102060000E94A839882309F059C089819A818E1568
:102070009F0540F40E0D1F1D01501040F801808394
:102080008EE04FC0892B09F04BC08DE04AC0809193
:10209000F305F80180838091F40506C08091F10575
:1020A000F80180838091F20581833AC08091F50523
:1020B00080FF04C081E0F801808332C0F801118202
:1020C0002FC08091ED05F80180838091ED059091FE
:1020D000EE05A091EF05B091F005892F9A2FAB2F57
:1020E000BB2781838091ED059091EE05A091EF05CE
:1020F000B091F005CD01AA27BB2782838091ED0521
:102100009091EE05A091EF05B091F0058B2F9927E6
:10211000AA27BB27838304C082E003C087E001C0F5
:1021200080E00F900F90CF91DF911F910F91FF9062
:10213000EF90DF90CF9008951F93182F80E00E94BA
:10214000650F88EE93E024E131E0F9013197F1F772
:102150000197D9F7183040F488B3912F9295990FD1
:10216000907E8F71982B98BB8BE598E066E274E0C7
:1021700041E00E94CC1E882311F011E021C089E2C9
:1021800094E00E94CB2C882361F089E294E00E94C5
:10219000512D89E294E00E94CB2C882351F011E06C
:1021A0000DC087E294E00E94CB2C89E294E00E946B
:1021B000CB2C109332041092290410E00E947A0F65
:1021C000812F1F910895DF92EF92FF920F931F933B
:1021D000182FE62ED42EF22E8091EC05882349F498
:1021E000812F0E949C10882309F07AC081E080939F
:1021F000EC0580913204811711F081E074C087E012
:102200008F1510F483E06FC0812F0E94650F88EC5A
:10221000E81611F082E067C0802F90E002C0880FBE
:10222000991FFA94E2F70D2D0823013089F001304F
:1022300030F00530F1F0073089F184E054C081ECD2
:102240009CE00E94DC321092E4051092E50544C047
:102250008091E405882309F045C081EC9CE06BE0A7
:102260007DE041E00E94B4378823E1F50093E40566
:1022700033C08091E4058823A9F581EC9CE06BE0F4
:102280007DE048E00E94B437882351F581EC9CE062
:102290006BE07DE042E00E94B43719C08091E40514
:1022A000882301F581EC9CE06BE07DE042E00E9438
:1022B000B4378823A9F44091CB0C5091CC0C609199
:1022C000CD0C7091CE0C81EC9CE00E946E24882392
:1022D00039F482E08093E4050E947A0F80E003C025
:1022E00087E001C086E01F910F91FF90EF90DF9093
:1022F0000895DF92EF92FF920F931F93DF93CF9396
:1023000000D0CDB7DEB7082F162FD42E7901683C48
:1023100041F468EC4FEF20E0F70100810E94E310E8
:10232000B2C08091EC05882349F4802F0E949C1054
:10233000882309F0A5C081E08093EC0580913204E8
:10234000801711F081E09FC0112329F4F0E4FD15FE
:1023500010F488E098C00E94650F8091E4058130F8
:1023600031F0813030F0823009F04FC03EC08AE059
:102370008AC0103421F01834F1F089E084C0A0E064
:10238000B0E04D2D50E0F701EA0FFB1F808188235C
:1023900031F0A730B10519F0A417B50719F4AA5FF9
:1023A000B94F18C0FD01EA5FF94F80831196A8303C
:1023B000B10549F72AC0A0E0B0E04D2D50E0F7018B
:1023C000EA0FFB1F8081882319F0A417B50721F4B9
:1023D000AD5FB94F1C9219C0FD01ED5FF94F8083CD
:1023E0001196A330B10559F710C0112311F082E006
:1023F0004AC081EC9CE0B7014D2D50E09E012F5F5B
:102400003F4F0E94FA328823D9F50E947A0F8091BB
:10241000E4058823B9F520E030E0F901EA5FF94FDF
:102420008081882351F4E22F121664F520E030E019
:102430004E2F552747FD509510C02F5F3F4F283036
:10244000310559F71FC0F901E55FF24FD901AA5FC5
:10245000B94F8C9180832F5F3F4F241735079CF332
:10246000FA01E55FF24F8EE280838091030681835B
:10247000809104068283809105068383148202C0C2
:1024800087E001C080E00F900F90CF91DF911F9106
:102490000F91FF90EF90DF9008950E9428430895D8
:1024A000882311F084E00895862FBA010E944D3FE1
:1024B00008950F931F93882311F084E006C0CB0189
:1024C000BA01A90198010E94D53E1F910F9108956C
:1024D0000F931F93882311F084E006C0CB01BA014B
:1024E000A90198010E94813E1F910F9108958823B0
:1024F00011F081E008950E941B3D0895882311F09A
:1025000081E008950E947E3E0895FC01238130E021
:1025100040E050E0542F432F322F2227828190E059
:10252000A0E0B0E0282B392B4A2B5B2B542F432FF4
:10253000322F2227818190E0A0E0B0E0282B392BB8
:102540004A2B5B2B542F432F322F2227808190E080
:10255000A0E0B0E0282B392B4A2B5B2BB901CA0134
:102560000895CF93DF939C01FC014193BB27A72FD4
:10257000962F852FE9018983CB01AA27BB27818369
:10258000472F5527662777274283DF91CF910895FC
:10259000EF92FF920F931F93FC01DB015B969C91DE
:1025A0005B9780E05A962C915A9730E0822B932BC0
:1025B0007C0100E010E08081833091F455969C917D
:1025C000559780E054962C9130E0822B932BA0E01D
:1025D000B0E0DC0199278827E82AF92A0A2B1B2B6F
:1025E000B701C8011F910F91FF90EF900895CF930D
:1025F000DF93FC01EB012A8F3B8F8081833029F42C
:10260000CA01AA27BB278C8B9D8BDF91CF910895A0
:102610000F931F93CF93DF93AC01EB011986FC015D
:1026200086899789A08DB18D0097A105B10509F420
:1026300044C080E090E0A0E0B0E03EE2FA01628DAC
:10264000738D680F791FFB0120810196203281F084
:10265000253009F425EE8930910529F4FE01EA0FB1
:10266000FB1F31871196FE01EA0FFB1F2187119690
:102670008B30910519F7AC0FBD1F19961C92DA012A
:102680005A96ED91FC915B97838588875A960D91B8
:102690001C915B97C8014C960E94851268837983D0
:1026A0008A839B83C80146960E9485127F836E832E
:1026B000BC01882799277D836C83DF91CF911F917F
:1026C0000F910895CF93DF93EC01A881B981109702
:1026D00001F1FD0101C031968081813248F08A33D9
:1026E000D1F78C9190E0C0978A30910590F405C0A5
:1026F00080911406282F30E00EC01196AE17BF0748
:1027000041F48230910528F49C013196F983E883E5
:1027100002C02FEF3FEFC901DF91CF910895DF9302
:10272000CF9300D0CDB7DEB79A838983CE010196CF
:102730000E94621397FF02C08BE003C080931406CF
:1027400080E00F900F90CF91DF9108952F923F92EC
:102750004F925F926F927F928F929F92AF92BF92B1
:10276000CF92DF92EF92FF920F931F93DF93CF935D
:10277000CDB7DEB7C854D0400FB6F894DEBF0FBE59
:10278000CDBF9A878987E62E49015A0126960FAF59
:10279000269727961FAF2797CE0109960E946213AE
:1027A0006C0197FF02C08BE0BCC5FC01EE0FFF1F60
:1027B000E25FF94F0190F081E02D309709F010822F
:1027C000CFA68C2D0E94771280FF02C083E0A9C59E
:1027D00082FF02C08AE0A5C58C2D63E0AE014F5F89
:1027E0005F4F0E9450128823F1F429813A814B8176
:1027F0005C812115310541055105A9F0213000E822
:10280000300700E0400700E0500768F4DA01C90132
:102810000197A109B10982239323A423B52300972B
:10282000A105B10541F081E090E0A0E0B0E089832E
:102830009A83AB83BC8381149104A104B104A1F0F9
:1028400010E0811612E0910610E0A10610E0B1063A
:1028500008F462C521E0821620E0920620E0A2067C
:1028600021E0B20608F058C5D501C4010197A109BD
:10287000B10988219921AA21BB210097A105B105A1
:1028800009F04AC58F2D869590E02C0166247724A7
:102890004FA258A669A67AA6F9E0440C551C661CFE
:1028A000771CFA95D1F74BA65CA66DA67EA64114BF
:1028B00051046104710409F431C58FA561E0AE01D2
:1028C0004B5F5F4F0E945012882309F029C52E2DBF
:1028D00030E089010870107023961FAF0EAF239768
:1028E000E3FC09C08FE390E0A0E0B0E08B8F9C8F09
:1028F000AD8FBE8F04C01B8E1C8E1D8E1E8E6D81F3
:102900007E818F8198854B8C5C8C6D8C7E8C641560
:1029100075058605970508F401C57B018C01E4184F
:10292000F508060917092196ECAEFDAE0EAF1FAFF4
:102930002197D801C70180389105A105B10508F498
:10294000EDC465015401E9E0D694C794B794A79407
:10295000EA95D1F791E8A916B104C104D10408F0B1
:10296000DBC4D901A270B070BCAFABAF21FF07C010
:10297000C90187709070029739F020FF05C020FFD1
:10298000CBC4B2E0B8AB02C0E3E0E8AB21964CACFC
:102990005DAC6EAC7FAC219771E1769467945794EF
:1029A00047947A95D1F74F86588A698A7A8A219610
:1029B0006CAC7DAC8EAC9FAC21976CE09694879408
:1029C000779467946A95D1F76B867C868D869E8610
:1029D00089819A81AB81BC818C019D01015010409D
:1029E000204030400FAB18AF29AF3AAF2227332732
:1029F000A901281B390B4A0B5B0B2BAB3CAB4DAB36
:102A00005EAB38A9333009F070C002C043E048AB78
:102A1000A114B104C104D10429F0ABA2BCA2CDA27F
:102A2000DEA227C0E0E8F4E081E090E0A0E0B0E0C2
:102A30008BA39CA3ADA3BEA30CC04BA05CA06DA0B8
:102A40007EA0440C551C661C771C4BA25CA26DA298
:102A50007EA280819181009761F03296A0E0B0E083
:102A60006F84788889889A88681679068A069B0612
:102A700020F721966CAD7DAD8EAD9FAD21972BA13A
:102A80003CA14DA15EA10E94A94E79018A01D80105
:102A9000C701865F9F4FA040B04080509040AF4F2D
:102AA000BF4008F03BC41701280142E0220C331C50
:102AB000441C551C4A95D1F787E092E0A0E0B0E0B5
:102AC000280E391E4A1E5B1E39E0569447943794EF
:102AD00027943A95D1F720E2E22EF12C012D112D09
:102AE0001B8A1C8A1D8A1E8A89C0A114B104C104D4
:102AF000D10429F0ABA2BCA2CDA2DEA228C0EEE890
:102B0000F4E091E0492E512C612C712C4BA25CA277
:102B10006DA27EA20CC06BA07CA08DA09EA0660CB6
:102B2000771C881C991C6BA27CA28DA29EA280811E
:102B30009181009761F03296A0E0B0E0EB84FC84D4
:102B40000D851E85E816F9060A071B0720F7219652
:102B50006CAD7DAD8EAD9FAD21972BA13CA14DA15C
:102B60005EA10E94A94EC901DA01863F0FE09007DD
:102B700000E0A00700E0B00758F09C01AD012E5F17
:102B80003F4F4F4F5F4F220F331F441F551F18C039
:102B90009C01AD01220F331F441F551F280F391F01
:102BA0004A1F5B1F2F5F3F4F4F4F5F4F5695479513
:102BB000379527952D5F3F4F4F4F5F4F11E018AB73
:102BC000FFEF2F2EF1E03F2E412C512C220E331E11
:102BD000441E551EE9E05694479437942794EA958D
:102BE000D1F771E0E72EF12C012D112D20E230E01C
:102BF00040E050E02B8B3C8B4D8B5E8B8B8D9C8D06
:102C0000AD8DBE8D8E0D9F1DA01FB11F8F8B988F18
:102C1000A98FBA8F2B893C894D895E89220D331D7E
:102C2000441D551D280F391F4A1F5B1F8FA998ADE2
:102C3000A9ADBAAD820F931FA41FB51F6BA87CA8C6
:102C40008DA89EA886219721A821B921821B930BCC
:102C5000A40BB50B68A9633089F4E80EF91E0A1FAE
:102C60001B1F6F88788C898C9A8C680E791E8A1E3F
:102C70009B1E6F8A788E898E9A8E04C0280E391E0C
:102C80004A1E5B1E8BA19CA1ADA1BEA164E0880F72
:102C9000991FAA1FBB1F6A95D1F76B8C7C8C8D8CFA
:102CA0009E8C86199709A809B909820F931FA41F42
:102CB000B51F21962CAD3DAD4EAD5FAD21972817C8
:102CC00039074A075B0708F429C3CA01B9016E191D
:102CD0007F09800B910B62197309840995096B8830
:102CE0007C888D889E8866197709880999092BA1A7
:102CF0003CA14DA15EA10E94A94E39014A0128A91B
:102D00002330F9F436EF63163FEF730630E08306A5
:102D100030E0930608F07EC0A114B104C104D104D0
:102D200009F0FCC2ABA0BCA0CDA0DEA0D694C79495
:102D3000B794A794A114B104C104D10409F068CEDA
:102D4000EDC248A9423009F058C056EF65165FEF52
:102D5000750650E0850650E0950680F1A114B10497
:102D6000C104D10481F48BA19CA1ADA1BEA1880FA7
:102D7000991FAA1FBB1F81349105A105B10518F445
:102D80005C016D01B2CE8BAD9CAD892B09F03ECEBE
:102D9000A114B104C104D10409F0C0C2ABA0BCA00D
:102DA000CDA0DEA0AA0CBB1CCC1CDD1C91E8A91692
:102DB000B104C104D10408F498CEB0C2A6EF6A16DB
:102DC000AFE07A06A0E08A06A0E09A0618F5A11402
:102DD000B104C104D10409F0A1C2ABA0BCA0CDA034
:102DE000DEA0AA0CBB1CCC1CDD1CB1E8AB16B104E8
:102DF000C104D10408F479CE91C2E8A9E13051F4BC
:102E0000F6EF6F16FFE07F06F0E08F06F0E09F061A
:102E100008F084C29BA1610124964FAE24972596A9
:102E20005FAE25972696AFAC26972796BFAC27971F
:102E300021962CAD3DAD4EAD5FAD21972D833E83E8
:102E40004F835887F501A50140505E4F29965FAF2B
:102E50004EAF299711922996AEADBFAD2997EA17CB
:102E6000FB07C1F7D501E3E3F4E081918D9324E002
:102E7000EE33F207D1F7D5011B961C921B9782E027
:102E80001C968C931C971D969C931D971E96EC92F6
:102E90001E971F96FC921F9781E050968C93F50128
:102EA0007196B8A9B33019F080E092E002C080E0DA
:102EB00090E0808391834D815E816F817885403081
:102EC000E0E05E07E1E06E07E0E07E0738F4D50160
:102ED00053964C93539754965C9304C0C5018096C7
:102EE0000E94B11288EFF501858B8FE3808F118EE0
:102EF0008FEF828F138EC5014C964B8D5C8D6D8D3F
:102F00007E8D0E94B112F8A9F33009F048C0C501C6
:102F10008D5B9F4F40E050E061E278E40E94B11287
:102F2000C5018496A60124966FAD249725967FADA2
:102F300025970E94B112C5018C9642E050E060E0F6
:102F400070E00E94B11281E0D501D0968C93D097A9
:102F5000D1961C92D19786E0D2968C93D297D39635
:102F60001C92E0E4F0E0AE0EBF1E80E8D5018C9329
:102F7000E2E0F0E0AE0EBF1E89E2D5018C93EEEBED
:102F8000FFEFAE0EBF1ED501A95BBF4FEFE3F4E02C
:102F900081918D9304E0E235F007D1F720C0C5019F
:102FA000879640E050E061E278E40E94B112D501DA
:102FB0005696CC9256975796DC92579780E89496FF
:102FC0008C93949789E296968C9396979B96E3E5DB
:102FD000F4E081918D9304E0E636F007D1F7950196
:102FE00022503E4F3AAB29AB85E5D9018C938AEA52
:102FF00011968C938FA5B5012B8D3C8D4D8D5E8DDB
:1030000001E010E00E945912882309F089C1B8A993
:10301000B33009F05BC02B8D3C8D4D8D5E8D2A5FEA
:103020003F4F4F4F5F4F8FA5B5010E945912F501D9
:1030300011922996EEACFFAC2997EE15FF05C1F76A
:10304000C50142E552E561E671E40E94B112C50195
:103050008C519E4F42E752E761E471E60E94B11243
:1030600008946108710881089108C50188519E4F34
:10307000B401A3010E94B112C50184519E4F42E0E8
:1030800050E060E070E00E94B11285E5A9A9BAA9FC
:103090008C938AEA11968C932B8D3C8D4D8D5E8D91
:1030A000295F3F4F4F4F5F4F8FA5B50101E010E003
:1030B0000E9459122B8D3C8D4D8D5E8D2F5F3F4FA1
:1030C0004F4F5F4F8FA5B5010E9459128BA59CA54C
:1030D000F50111920197E9F7B8A9B330B1F4C50130
:1030E00048EF5FEF6FEF7FEF0E94B112C5010496CA
:1030F0004FEF5FEF6FEF7FEF0E94B112C5010896AF
:103100004FEF5FEF6FEF7FE00DC0E8A9E13029F0EE
:1031100048EF5FEF6FEF7FEF04C048EF5FEF6FEFB7
:1031200070E0C5010E94B1126F88788C898C9A8CEE
:103130006F8E78A289A29AA24201310174016301C3
:103140000FA118A529A53AA50615170528053905C3
:1031500010F4680179018FA5B5012F8D38A149A11F
:103160005AA186010E945912882309F0D9C0F5019D
:10317000119229962EAD3FAD2997E217F307C1F7BB
:103180008F8D98A1A9A1BAA18C0D9D1DAE1DBF1D4B
:103190008F8F98A3A9A3BAA36C187D088E089F08E7
:1031A00069F698A9933029F0CB88DC88ED88FE88F1
:1031B00004C0CBA0DCA0EDA0FEA0360147010FA10A
:1031C00018A529A53AA50C151D052E053F0510F4D7
:1031D000380149018FA5B5012F8D38A149A15AA108
:1031E00083010E945912882309F09AC0C618D70893
:1031F000E808F90869F02F8D38A149A15AA1260DD8
:10320000371D481D591D2F8F38A349A35AA3D5CF69
:1032100038A9333011F49CE011C08D819E81AF81BB
:10322000B88580509040A140B04010F096E006C0B4
:1032300058A9523011F091E001C094E02396AEAD50
:10324000BFAD2397AB2B09F05EC0F5011192299613
:103250004EAC5FAC2997E415F505C1F785E5A9A942
:10326000BAA98C938AEA11968C93AEEBCA2EA1E090
:10327000DA2ECA0CDB1CF601108281E08183828386
:10328000138294836D817E818F8198854B8C5C8CB9
:103290006D8C7E8C640D751D861D971D21EC3EE3A3
:1032A00040E050E00E94A94E79018A018EEFD601DC
:1032B00015968C93D801C701F2E0B695A79597951E
:1032C0008795FA95D1F78F63F60186832783C60128
:1032D00008964B8D5C8D6D8D7E8D0E94B1124D8157
:1032E0005E816F817885C6010C960E94B1128FA510
:1032F000B50120E030E040E050E001E010E00E9445
:103300005912882369F48FA560E040E050E00E94E4
:103310005012882331F004C083E103C08EE001C065
:1033200081E0C85BDF4F0FB6F894DEBF0FBECDBFA4
:10333000CF91DF911F910F91FF90EF90DF90CF9091
:10334000BF90AF909F908F907F906F905F904F90C5
:103350003F902F9008958F929F92AF92BF92CF92FD
:10336000DF92EF92FF920F931F93CF93DF93EC01C5
:103370008B818823C1F1B3E3CB2ED12CCC0EDD1E83
:103380002FA538A949A95AA98981B60101E010E001
:103390000E945912882311F081E026C01B82EFA4FD
:1033A000F8A809A91AA92B8D3C8D4D8D5E8D8BA196
:1033B0009CA1ADA1BEA147015801881A990AAA0A89
:1033C000BB0A82169306A406B50668F48A81823089
:1033D00051F42E0D3F1D401F511F8981B60101E0A0
:1033E00010E00E94591280E0DF91CF911F910F9160
:1033F000FF90EF90DF90CF90BF90AF909F908F9015
:1034000008958F929F92AF92BF92CF92DF92EF92E8
:10341000FF920F931F93CF93DF93EC017A018B01FF
:103420000E94AB19882309F059C08EEF9FEFAFEFD0
:10343000BFEFE80EF91E0A1F1B1F8F89988DA98DFB
:10344000BA8D0297A109B109E816F9060A071B0708
:1034500020F0CC24DD24760112C029853A8540E095
:1034600050E0C801B7010E94634E6B017C018BA53F
:103470009CA5ADA5BEA5C80ED91EEA1EFB1ECFA6F3
:10348000D8AAE9AAFAAA13E3812E912C8C0E9D1ECC
:10349000F40180E092E011920197E9F7AA24BB249D
:1034A00003C00894A11CB11C89859A85A816B90689
:1034B00078F4950140E050E02C0D3D1D4E1D5F1D40
:1034C0008981B40101E010E00E945912882349F378
:1034D00020E089859A85A816B90609F021E0822F97
:1034E000DF91CF911F910F91FF90EF90DF90CF90E0
:1034F000BF90AF909F908F9008950F931F93CF939D
:10350000DF93EC010E94AB19882309F056C0888133
:10351000833009F04AC08C81813009F046C08E01A9
:103520000D5C1F4FF80180E092E011920197E9F7DE
:10353000CF5CDD4F85E589938AEA8883C253D24008
:10354000C80142E552E561E671E40E94B112CE0184
:10355000895E9D4F42E752E761E471E60E94B11235
:103560004F85588969897A89CE01855E9D4F0E9471
:10357000B1124B855C856D857E85CE01815E9D4F48
:103580000E94B1122F8D38A149A15AA12F5F3F4F40
:103590004F4F5F4F2FA738AB49AB5AAB8981B8016A
:1035A00001E010E00E9459121C82898160E040E035
:1035B00050E00E945012811181E0DF91CF911F9164
:1035C0000F9108950F931F93CF93DF93EC018B011D
:1035D000009799F0E881F981309779F0808188230C
:1035E00061F02A813B81858196812817390729F46A
:1035F00081810E947E1280FF0CC080E090E029E073
:10360000F80191838083822FDF91CF911F910F91D9
:1036100008958881998120E0F3CF0F931F93DF9362
:10362000CF9300D0CDB7DEB78C01BE016F5F7F4F67
:103630000E94E21A882319F4F801118210820F9077
:103640000F90CF91DF911F910F910895AF92BF928C
:10365000CF92DF92EF92FF920F931F93DF93CF935E
:103660000F92CDB7DEB75C016A017B01FC0187A533
:1036700090A9A1A9B2A9481759076A077B0711F4B5
:1036800090E01FC0C5010E94AB19982F8823C9F490
:10369000B5016D5C7F4FF5018181A701960101E0C5
:1036A00010E099830E9468129981882329F0CC2424
:1036B000CA94DC2C760191E0F501C7A6D0AAE1AA54
:1036C000F2AA892F0F90CF91DF911F910F91FF9058
:1036D000EF90DF90CF90BF90AF900895CF93DF939E
:1036E000EC011B828FEF9FEFAFEFBFEF8FA798AB7F
:1036F000A9ABBAABCE010E94261B882311F084E04F
:1037000042C0CE5CDD4F988180E02A91C153D24007
:1037100030E0822B932B85559A4A11F083E033C019
:103720008BA9893E29F08B3E69F58DA9803951F529
:10373000DE01A759BF4FE7E6F4E08D91282F30E076
:103740008191281B310984E0EA36F80719F0232B10
:10375000A1F302C0232BA1F0DE01AB57BF4FEBE674
:10376000F4E08D91282F30E08191281B310984E00D
:10377000E037F80719F0232BA1F304C0232B11F431
:1037800080E001C082E0DF91CF9108953F924F9297
:103790005F926F927F928F929F92AF92BF92CF92E1
:1037A000DF92EF92FF920F931F93DF93CF93CDB7EA
:1037B000DEB768970FB6F894DEBF0FBECDBF6B01C2
:1037C000B42EDB011D921C920E9462137C0197FFB4
:1037D00002C08BE0C9C2FC01EE0FFF1FE25FF94F90
:1037E000008111810115110511F48CE0BDC2F601B3
:1037F000118300839EEFD92EDB20D8018C91882382
:1038000061F011968C910E947E1280FD06C0DD2031
:1038100009F4A7C282FDA3C2A4C2F8011082E1820A
:103820008E2D0E94771280FF02C083E09DC2DD20B2
:1038300011F082FD94C2C80140E050E060E070E009
:103840000E946E1B823029F01D8A1E8A1F8A188EE4
:1038500054C06E010894C11CD11C56018EEBE82E99
:1038600081E0F82E23E330E0E20EF31EF801EE0DC6
:10387000FF1D8DEC9FEFE80EF91E8481882329F44B
:1038800060E070E080E090E004C0CF0108960E9404
:103890008512D5016D937D938D939D935D01E0E13C
:1038A000F0E0EE0EFF1EFEEFEF16F1E0FF06D1F6A0
:1038B000B1E1EB2EF12CEC0EFD1ED6018D919D9108
:1038C0000D90BC91A02D8D8B9E8BAF8BB88F0097E8
:1038D000A105B10511F483E009C0C8014D895E89D5
:1038E0006F89788D0E946E1B823070F0E4E0F0E00A
:1038F000CE0EDF1ECE14DF0401F7843011F481E018
:1039000033C2823008F02FC2D801DF969C91DF9736
:1039100080E0DE962C9130E0822B932B80509240F9
:1039200009F021C2065B1F4FF801908180E0D801A9
:103930002E918D010954104030E0822B932B2C01E5
:1039400066247724411451046104710439F4C801D8
:10395000895A9F4F0E9485122B013C01F801438E2A
:10396000548E658E768E0D5B1F4FD8013C900354AC
:103970001040F8013282832D8150823008F0F3C16B
:10398000005C1F4FD8018C9100541040282F30E06C
:10399000F801328721872115310509F4E4C1C901F5
:1039A000019782239323892B09F0DDC10B5B1F4F05
:1039B000D8019C9180E0F80122918F0104541040BD
:1039C000C22EDD24C82AD92AD8011896DC92CE92BC
:1039D0001797C6018F709070892B09F0C4C1095BDD
:1039E0001F4FF801908180E0D8012E918D0106547F
:1039F000104030E0822B932B4C01AA24BB2481146D
:103A00009104A104B10439F4C8018D5A9F4F0E945A
:103A100085124B015C010E5B1F4FF801908180E025
:103A2000D8012E918D0101541040E22EFF24E82A86
:103A3000F92AE114F10409F496C1232D30E040E0A5
:103A400050E0C301B2010E94634E698B7A8B8B8B6D
:103A50009C8B270166247724A4E0D694C794AA956A
:103A6000E1F7EE24FF24C40CD51CE61CF71CC60E9F
:103A7000D71EE81EF91E8C149D04AE04BF0408F482
:103A800072C18C189D08AE08BF08F80121853285E7
:103A900040E050E0C501B4010E94A94EC901DA011D
:103AA0000097A105B10509F45EC1863FFFEF9F07AE
:103AB000FFEFAF07FFE0BF0708F055C1863F2FEFCC
:103AC000920720E0A20720E0B20718F0F3E03F2EB3
:103AD0000DC0863F3FE0930730E0A30730E0B30717
:103AE00018F43324339402C0E2E03E2E72E0872EB5
:103AF000912CA12CB12C880E991EAA1EBB1ED80198
:103B000057968D929D92AD92BC925A978D899E89BF
:103B1000AF89B88DF801878F90A3A1A3B2A39C01B0
:103B2000AD01240D351D461D571DD80193962D93CB
:103B30003D934D935C9396978D899E89AF89B88DFF
:103B4000C80ED91EEA1EFB1ED8019B96CD92DD92AF
:103B5000ED92FC929E97B3E03B1661F5025A1F4F1F
:103B6000F801908180E0D8012E918D010D55104013
:103B700030E0822B932B892B09F0F5C0F801878167
:103B80009085892B09F0EFC0C801815A9F4F0E9490
:103B90008512D80197966D937D938D939C939A97F8
:103BA000A501940162E0220F331F441F551F6A953F
:103BB000D1F737C0F80187819085892B09F4D3C0EC
:103BC00089899A89AB89BC89280F391F4A1F5B1FD5
:103BD000D80197962D933D934D935C939A97D50179
:103BE000C401880F991FAA1FBB1FE2E03E1619F4FB
:103BF0009C01AD0116C09C01AD01280D391D4A1D67
:103C00005B1D569547953795279581E090E0A0E09C
:103C1000B0E088229922AA22BB22280D391D4A1D14
:103C20005B1D21503E4F4F4F5F4F89E056954795A2
:103C3000379527958A95D1F7F801838D948DA58DB9
:103C4000B68D82179307A407B50708F48CC08FEFD1
:103C50009FEFAFEFBFEF8787908BA18BB28B8387EE
:103C60009487A587B68780E88483F3E03F1609F040
:103C700061C00C591F4FD8019C9180E0F80122913E
:103C80008F010356104030E0822B932B019709F0EF
:103C900051C08D899E89AF89B88D0196A11DB11D36
:103CA0008D8B9E8BAF8BB88FC8014D895E896F89D4
:103CB000788D0E94261B882309F03CC0D8011496F9
:103CC0001C920E5C1D4FF801908180E0D8012E916E
:103CD0008D010153124030E0822B932B85559A4A77
:103CE00049F5C801C3960E94851262557245814606
:103CF000914401F5C801895E9D4F0E94851262576B
:103D0000724781449146B1F4C801855E9D4F0E947F
:103D10008512D8011F966D937D938D939C93529736
:103D2000C801815E9D4F0E948512F80163877487E8
:103D300085879687D8013C92809112069091130650
:103D40000196909313068093120616969C938E9379
:103D50001597F801138A148A158A168A02C08AE018
:103D600003C080E001C08DE068960FB6F894DEBF16
:103D70000FBECDBFCF91DF911F910F91FF90EF90BC
:103D8000DF90CF90BF90AF909F908F907F906F907B
:103D90005F904F903F9008951F93DF93CF9300D093
:103DA00000D000D0CDB7DEB79C838B837E836D833C
:103DB000142F7A836983CE0101960E946213DC017D
:103DC00097FF02C08BE022C0FC01EE0FFF1FE25FF5
:103DD000F94F0190F081E02D309709F01082EB81CE
:103DE000FC81309709F01082AA0FBB1FA25FB94F68
:103DF000ED93FC93112311F480E008C0CE010596E9
:103E0000BE016D5F7F4F40E00E94C61B26960FB635
:103E1000F894DEBF0FBECDBFCF91DF911F91089503
:103E2000BF92CF92DF92EF92FF920F931F93CF93A7
:103E3000DF93FC017A018B01C081D18142305105B1
:103E40006105710508F4B3C08F89988DA98DBA8D6D
:103E5000481759076A077B0708F0A9C08881823094
:103E600009F45AC0833009F47CC0813009F09FC046
:103E70006A01D694C794C40ED51EA601452F5527B6
:103E8000469560E070E08BA19CA1ADA1BEA1480F5A
:103E9000591F6A1F7B1FCE010E94261B882309F031
:103EA0008BC0F601F170EC0FFD1FB3A80894C11C84
:103EB000D11CA601452F5527469560E070E08BA1E7
:103EC0009CA1ADA1BEA1480F591F6A1F7B1FCE0147
:103ED0000E94261B882309F06FC06B2D70E08FEFC6
:103EE00091E0C822D922CC0DDD1D9BA980E0682B72
:103EF000792BC70181709070892B39F0B4E07695E9
:103F00006795BA95E1F79B0129C09B0140E050E01D
:103F10003F704070507054C0452F562F672F772741
:103F20008BA19CA1ADA1BEA1480F591F6A1F7B1F89
:103F3000CE010E94261B882309F03EC0EE0CFF1C18
:103F4000001F111FC7019170FE01E80FF91F34A96E
:103F500020E083A990E0822B932B9C0140E050E06D
:103F60002FC0E7E07695679557954795EA95D1F785
:103F70008BA19CA1ADA1BEA1480F591F6A1F7B1F39
:103F8000CE010E94261B8823B9F452E0EE0CFF1CE0
:103F9000001F111F5A95D1F7C7019170C3968C0F5E
:103FA0009D1F0E9485129B01AC015F7009C021E03A
:103FB00030E040E050E004C02FEF3FEF4FEF5FEF05
:103FC000B901CA01DF91CF911F910F91FF90EF903E
:103FD000DF90CF90BF9008952F923F924F925F92C3
:103FE0006F927F928F929F92AF92BF92CF92DF9209
:103FF000EF92FF920F931F93CF93DF932C013A011F
:104000004B01FC01C081D1814030F0E05F07F0E25C
:104010006F07F0E07F0708F0D8C0DB01CA018F719D
:104020009070A070B0700097A105B10509F0CDC0E7
:10403000F20146875787608B718BE680F780008599
:104040001185E114F1040105110551F588818330D2
:1040500040F08FA198A5A9A5BAA50097A105B10523
:10406000E9F4A4019301F5E0569547953795279516
:10407000FA95D1F78F819885A0E0B0E0281739072D
:104080004A075B0708F0A1C08FA198A5A9A5BAA50A
:10409000F201868B978BA08FB18F6FC07C018D0151
:1040A00089859A855C01CC24DD24E9E0AA0CBB1C3F
:1040B000CC1CDD1CEA95D1F7120126C0C101B80164
:1040C000A7010E94101F7B018C016F3FFFEF7F074C
:1040D000FFEF8F07FFEF9F0711F481E077C082E0C9
:1040E000E816F1040105110508F46FC08F89988D59
:1040F000A98DBA8DE816F9060A071B0708F065C0F6
:104100006A187B088C089D086A147B048C049D0443
:10411000A8F67EEFA72E7FEFB72E7FEFC72E7FEF9B
:10412000D72EAE0CBF1CC01ED11E8F89988DA98DB5
:10413000BA8D0297A109B109A816B906CA06DB060D
:1041400028F020E030E040E050E012C029853A85B8
:1041500040E050E0C601B5010E94634E9B01AC01F6
:104160008BA59CA5ADA5BEA5280F391F4A1F5B1FB7
:10417000F201268B378B408F518FF201E28AF38A4E
:10418000048B158B26893789408D518D211531057A
:1041900041055105D1F0D401C30169E0B695A79559
:1041A000979587956A95D1F7820F931FA41FB51F26
:1041B000868B978BA08FB18FC3019170C396C80F68
:1041C000D91FD38FC28F80E001C082E0DF91CF91F1
:1041D0001F910F91FF90EF90DF90CF90BF90AF9025
:1041E0009F908F907F906F905F904F903F902F9017
:1041F00008957F928F929F92AF92BF92CF92DF925B
:10420000EF92FF920F931F93CF93DF93EC016A011C
:104210007B0148015901423051056105710508F4DF
:10422000DFC08F89988DA98DBA8D481759076A0705
:104230007B0708F0D5C08881823009F472C08330D2
:1042400009F491C0813009F0CBC08A011695079519
:10425000040F151FA801452F5527469560E070E013
:104260008BA19CA1ADA1BEA1480F591F6A1F7B1F46
:10427000CE010E94261B782E882309F0B3C0D801F6
:10428000B1700F5F1F4F91E0C922DD24C114D1042A
:1042900051F0FE01EA0FFB1F83A98F70982D9295B4
:1042A000907F982B01C0982DAC0FBD1FD3969C9387
:1042B00081E08B83A801452F5527469560E070E08B
:1042C0008BA19CA1ADA1BEA1480F591F6A1F7B1FE6
:1042D000CE010E94261B782E882309F083C03FEF71
:1042E000E32E31E0F32EE022F122CD2849F024E044
:1042F000B694A794979487942A95D1F7E82D0BC08C
:10430000FE01EE0DFF1DE3A9E07FBB27AB2D9A2D2B
:10431000892D8F70E82BEC0EFD1ED701D396EC9300
:104320005CC0452F562F672F77278BA19CA1ADA18D
:10433000BEA1480F591F6A1F7B1FCE010E94261B7A
:10434000782E882309F04EC0CC0CDD1CEE1CFF1C1F
:10435000F601F170DE01AE0FBF1FD3968C92D3979A
:10436000FD0194AA3AC017E0769567955795479551
:104370001A95D1F78BA19CA1ADA1BEA1480F591FE1
:104380006A1F7B1FCE010E94261B782E882351F5C1
:104390008FEF9FEFAFEFBFE088229922AA22BB22C6
:1043A000B2E0CC0CDD1CEE1CFF1CBA95D1F78601E7
:1043B00011700D5C1F4F0C0F1D1FC8010E9485124C
:1043C000607070708070907F862A972AA82AB92A18
:1043D000C801B501A4010E94B11281E08B8302C023
:1043E000A2E07A2E872DDF91CF911F910F91FF9040
:1043F000EF90DF90CF90BF90AF909F908F907F9085
:1044000008954F925F926F927F928F929F92AF9298
:10441000BF92CF92DF92EF92FF920F931F93CF93B1
:10442000DF938C012A013B01FC01C081D181411540
:1044300051056105710599F48B849C84AD84BE841B
:1044400081149104A104B10451F18F89988DA98D33
:10445000BA8D88169906AA06BB0608F525C00E94E3
:10446000101F9B01AC01623071058105910508F4B4
:10447000EEC06F3FFFEF7F07FFEF8F07FFEF9F0754
:1044800009F4F3C08F89988DA98DBA8D2817390743
:104490004A075B0708F4E9C05301420105C0B1E0D7
:1044A0008B2E912CA12CB12C8F859889A989BA8942
:1044B0000097A105B10509F4D4C084149504A6049D
:1044C000B70409F04AC0750164010894C11CD11CED
:1044D000E11CF11C8F89988DA98DBA8DC816D9065B
:1044E000EA06FB0628F0A2E0CA2ED12CE12CF12C22
:1044F000C801B701A6010E94101F9B01AC016130E9
:1045000071058105910509F4B0C02F3F8FEF380781
:104510008FEF48078FEF580709F4A7C02115310521
:1045200041055105A9F02B853C854D855E852230DE
:1045300031054105510588F08F89988DA98DBA8D77
:10454000281739074A075B0740F449015A0105C09B
:10455000C114D104E104F104E9F575016401089482
:10456000C11CD11CE11CF11C8F89988DA98DBA8DBD
:10457000C816D906EA06FB0660F0E2E08E16910442
:10458000A104B10408F46DC0F2E0CF2ED12CE12CCF
:10459000F12CC801B701A6010E94101F9B01AC01BC
:1045A0006115710581059105A9F0613071058105DD
:1045B000910509F45AC06F3FFFEF7F07FFEF8F07A8
:1045C000FFEF9F0709F451C0C814D904EA04FB04A3
:1045D00031F647C0CE01B701A6010FEF1FEF2FEF55
:1045E0003FEF0E94F920882381F5411451046104B2
:1045F000710449F0CE01B301A201970186010E9426
:10460000F920882311F5CB86DC86ED86FE862F8582
:10461000388949895A898F89988DA98DBA8D0297D1
:10462000A109B10982179307A407B50740F02150EB
:104630003040404050402F87388B498B5A8B8C81BB
:1046400081608C83A701960110C0813029F021E0A0
:1046500030E040E050E009C02FEF3FEF4FEF5FEF59
:1046600004C020E030E040E050E0B901CA01DF9131
:10467000CF911F910F91FF90EF90DF90CF90BF905F
:10468000AF909F908F907F906F905F904F90089524
:104690006F927F928F929F92AF92BF92CF92DF9252
:1046A000EF92FF920F931F93CF93DF93EC013B01A7
:1046B000C880D9802E853F8548895989EE88FF8832
:1046C000088D198DE114F1040105110509F4F2C0FA
:1046D000E0E28E2E912CA12CB12C820E931EA41EF2
:1046E000B51E80E0881680E0980680E2A80680E08B
:1046F000B80608F0DFC0D501C4019170A070B07099
:104700000097A105B10509F0C8C00894E11CF11C8F
:10471000011D111DEE8AFF8A088F198FEA88FB8818
:104720000C891D89E114F10401051105B1F4A501FD
:10473000940175E056954795379527957A95D1F769
:10474000D60117968D919C911897A0E0B0E028179C
:1047500039074A075B07E0F5A0C0F601818592851D
:104760000197A0E0B0E0A501940169E05695479556
:10477000379527956A95D1F782239323A423B523F0
:104780000097A105B10509F088C0CE01B801A701C5
:104790000E94101F7B018C0162307105810591051B
:1047A00008F48AC08FEFE8168FEFF8068FEF08073E
:1047B0008FEF180709F482C0F6018789908DA18DCB
:1047C000B28DE816F9060A071B0778F1672829F465
:1047D0001E8A1F8A188E198E6DC04A895B896C8962
:1047E0007D89CE010E9401227B018C01611571053A
:1047F0008105910511F487E062C061307105810582
:10480000910509F459C08FEFE8168FEFF8068FEF86
:1048100008078FEF180709F451C0C601B801A701B6
:104820000E94011A882309F049C0EA8AFB8A0C8B8E
:104830001D8B8EEF9FEFAFEFBFEFE80EF91E0A1F43
:104840001B1FF6018789908DA18DB28D0297A1095A
:10485000B109E816F9060A071B0728F020E030E046
:1048600040E050E016C0D60119962D913C911A9760
:1048700040E050E0C801B7010E94634E9B01AC01CB
:10488000F60183A594A5A5A5B6A5280F391F4A1F33
:104890005B1F2E8B3F8B488F598F8E869F86A88AF1
:1048A000B98AC4019170C396C80ED91EDB8ECA8E18
:1048B00080E005C084E003C082E001C081E0DF91B8
:1048C000CF911F910F91FF90EF90DF90CF90BF900D
:1048D000AF909F908F907F906F9008952F923F920E
:1048E0004F925F926F927F928F929F92AF92BF9200
:1048F000CF92DF92EF92FF920F931F93DF93CF93AC
:10490000CDB7DEB727970FB6F894DEBF0FBECDBF89
:104910006C017A018B018F832D2CBE016F5F7F4F5D
:104920000E94E21A382E882309F0AFC1D6011F96E3
:104930003C901F97332009F0A8C11A968D909D9046
:10494000AD90BC901D978E149F04A006B10620F474
:104950001E968C9181FF02C047015801F601208903
:10496000318942895389D60150961D921D921D921C
:104970001C92539781149104A104B10409F44BC112
:10498000E981FA81818592852C016624772419E0DA
:10499000440C551C661C771C1A95D1F7211531055E
:1049A0004105510509F43FC0DA01C9010197A10988
:1049B000B1098B839C83AD83BE83C501B401615073
:1049C000704080409040A30192010E94A94E79015D
:1049D0008A016B817C818D819E81A30192010E945D
:1049E000A94EE216F30604071507E8F08827992771
:1049F000DC0184199509A609B7092B813C814D81F9
:104A00005E8182239323A423B523F601808B918BAF
:104A1000A28BB38B881A990AAA0ABB0A44895589C2
:104A20006689778931C0D60116964D915D916D9159
:104A30007C9119974115510561057105F1F48F813C
:104A4000922D40E050E060E070E00E940122AB0156
:104A5000BC01413051056105710509F460C04F3F4B
:104A6000FFEF5F07FFEF6F07FFEF7F0709F440C01D
:104A7000F6014683578360877187D60154964D931C
:104A80005D936D937C9357974115510561057105B1
:104A900009F055C0C0C0F60180899189A289B38907
:104AA000840D951DA61DB71D808B918BA28BB38B9A
:104AB000868581FF0FC08F81922D0E940122AB015C
:104AC000BC01411551056105710551F488249924F3
:104AD000540142C08F81922D0E94101FAB01BC0176
:104AE0004F3FFFEF5F07FFEF6F07FFEF7F0739F4DF
:104AF00081E0D6011F968C9333243394C6C0423094
:104B000051056105710558F0E981FA818789908D19
:104B1000A18DB28D481759076A077B0720F082E004
:104B2000F601878767C08E0C9F1CA01EB11ED601A0
:104B300054964D935D936D937C93579707C0EE24E5
:104B4000FF248701E418F5080609170948145904D9
:104B50006A047B0408F49FCFF60180899189A289B9
:104B6000B389880D991DAA1DBB1D808B918BA28BCB
:104B7000B38BD501C4019170A070B0700097A105EE
:104B8000B10509F448C069807A80BEEFEB2EBFEF13
:104B9000FB2EBFEF0B2FBFEF1B2FE40EF51E061FE2
:104BA000171FF3018789908DA18DB28D0297A109FE
:104BB000B109E816F9060A071B07C0F421853285FA
:104BC00040E050E0C801B7010E94634E9B01AC0178
:104BD000F30183A594A5A5A5B6A5280F391F4A1FE3
:104BE0005B1F211531054105510539F482E0D601DD
:104BF0001F968C93A2E03A2E48C085017401F9E01B
:104C000016950795F794E794FA95D1F7E20EF31EFF
:104C1000041F151F03C0EE24FF248701F60120891D
:104C200031894289538982859385A485B585821708
:104C30009307A407B50768F4D6011A962D933D9300
:104C40004D935C931D971E968C911E9780641E96C3
:104C50008C93F60180899189A289B3899170A070A3
:104C6000B0700097A105B10581F0808D918DA28D66
:104C7000B38DE816F9060A071B0739F0D6015896D6
:104C8000ED92FD920D931C935B97832D27960FB6A3
:104C9000F894DEBF0FBECDBFCF91DF911F910F9172
:104CA000FF90EF90DF90CF90BF90AF909F908F904C
:104CB0007F906F905F904F903F902F9008956F92EC
:104CC0007F928F929F92AF92BF92CF92DF92EF929C
:104CD000FF920F931F93CF93DF933C016A017B01F7
:104CE000FC01C081D181423051056105710508F494
:104CF00070C08F89988DA98DBA8D481759076A079A
:104D00007B0708F066C0011511052105310569F022
:104D1000CE01B901A8010FEF1FEF2FEF3FEF0E9467
:104D2000F920682F882309F055C0C301B701A601F7
:104D30000E94101F4B015C016115710581059105F1
:104D400011F460E047C081E088169104A104B10429
:104D500009F43FC0EFEF8E16EFEF9E06EFEFAE06C1
:104D6000EFEFBE0611F461E035C0CE01B701A60138
:104D700000E010E020E030E00E94F920682F882356
:104D800049F52F85388949895A898F89988DA98D48
:104D9000BA8D0297A109B109281739074A075B079D
:104DA00058F42F5F3F4F4F4F5F4F2F87388B498B02
:104DB0005A8B8C8181608C83750164018F89988DF9
:104DC000A98DBA8D88169906AA06BB0608F4ADCF40
:104DD00001C062E0862FDF91CF911F910F91FF906C
:104DE000EF90DF90CF90BF90AF909F908F907F908B
:104DF0006F900895EF92FF920F931F93DF93CF93DD
:104E000000D0CDB7DEB77C01BE016F5F7F4F0E943F
:104E1000E21A182F882309F06DC0F70117851123B6
:104E200009F068C0868581FD02C017E063C0F70104
:104E3000208931894289538982859385A485B585E6
:104E4000281739074A075B0708F054C021153105B8
:104E50004105510591F44681578160857185C701EF
:104E600000E010E020E030E00E945F26182FF701FC
:104E700016821782108611862FC0F7014489558942
:104E800066897789C7010E94101FAB01BC014F3FA3
:104E9000FFEF5F07FFEF6F07FFEF7F0711F411E0F0
:104EA0001BC0413051056105710511F412E014C0B9
:104EB000E981FA818789908DA18DB28D48175907B4
:104EC0006A077B0748F4F701048915892689378921
:104ED000C7010E945F26182FF70180899189A28956
:104EE000B38982879387A487B58786858064868700
:104EF00011111787812F0F900F90CF91DF911F9184
:104F00000F91FF90EF900895EF92FF920F931F93F0
:104F1000CF93DF93EC017B010881198184E024C0E9
:104F2000C8010E94261B882351F5EA8DFB8D208144
:104F3000222381F193859F739C83253E71F02E324D
:104F400061F09F3051F020E030E09F71983011F413
:104F500021E030E02E153F05B1F0CE0160E070E0B9
:104F60000E944823882359F44E895F89688D798D82
:104F7000411551056105710599F6882321F01E8AB6
:104F80001F8A188E198EDF91CF911F910F91FF907C
:104F9000EF90089584E0F3CFDF92EF92FF920F93AA
:104FA0001F93DF93CF9300D0CDB7DEB78C017B0189
:104FB000BE016F5F7F4F0E94E21AD82E8823F9F45A
:104FC000E114F10441F4C80140E050E060E070E019
:104FD0000E94EC1F15C0C80160E070E00E948427A9
:104FE000843011F0882361F4C801B7010E940813CE
:104FF000C80160E070E00E944823843009F48D2DE0
:105000000F900F90CF91DF911F910F91FF90EF9034
:10501000DF900895CF92DF92EF92FF920F931F934C
:10502000CF93DF938C016B01DC01ED90FC9040E0AD
:1050300050E060E070E00E94EC1F882321F5C0E0A2
:10504000D0E0F80146895789608D718DC7010E94B3
:10505000261B8823C1F4D8015A96ED91FC915B97E9
:10506000E081E53E29F0EE2319F0C0E0D0E004C075
:105070002196CC15DD0551F0C80161E070E00E9479
:1050800048238823F1F2843009F487E0DF91CF913F
:105090001F910F91FF90EF90DF90CF900895DF92D6
:1050A000EF92FF920F931F93DF93CF93CDB7DEB7AD
:1050B000C254D0400FB6F894DEBF0FBECDBF8E01F4
:1050C0000F5B1F4FF80191838083C801BE016F5FA2
:1050D0007F4F42E00E94C61B882309F0F4C08981FB
:1050E0009A819A8F898FF801A081B18100E010E048
:1050F00002C00F5F1F4FFD01E00FF11F8081803262
:10510000C0F701501040FD01E00FF11F0F5F1F4F6E
:1051100002C0015010400115110509F479C08081C9
:1051200031978032B1F3DEC0FD01E60FF71FE08159
:105130002E2F30E06F5F7F4FE13818F1E03A20F01A
:10514000E03EF8F0ED3FE8F44A305105C0F4601756
:105150007107A8F4FD01E60FF71FE081E03478F055
:10516000EF3720F0EF3759F0ED3F48F4922F8827C2
:105170002E2F30E0282B392B6F5F7F4F02C020E0AD
:1051800030E0C901815690404A9710F420523040D7
:105190002115310509F494C0ECE9F4E001C0319621
:1051A0008081882329F090E082179307C1F788C097
:1051B0002F3F310509F018F48BE090E002C08AE03F
:1051C00090E04817590708F07BC02F3F310539F0B0
:1051D00030F0F701E40FF51F30834F5F5F4FF701A9
:1051E000E40FF51F20834F5F5F4F6017710708F4CE
:1051F0009BCFF701E40FF51F80E203C081934F5F5F
:105200005F4F4B305105D0F38B81853E09F458C078
:105210001F8E18A219A21AA299E1E92EF12CEC0E08
:10522000FD1EC70140E050E060E070E00E94EC1F0E
:10523000D82E882309F046C0C70161E070E00E94C3
:105240008427882399F4EBA9FCA9012B61F0DF01E5
:10525000FE0133969E01225F3F4F81918D93E217AD
:10526000F307D9F725C085EE808322C0843059F535
:10527000012B41F1C70161E070E00E940A288823F8
:1052800011F5EBA9FCA980E290E011920197E9F7F2
:10529000EBA9FCA988E08387ABA9BCA9FE013396E2
:1052A0009E01225F3F4F81918D93E217F307D9F75B
:1052B000E981FA8181E08383CF010E947D1A03C0D6
:1052C00086E001C08D2DCE5BDF4F0FB6F894DEBFB8
:1052D0000FBECDBFCF91DF911F910F91FF90EF9047
:1052E000DF9008951B8260E070E040E050E083E0D2
:1052F000E82EF12CEC0EFD1E17CFAF92BF92CF928D
:10530000DF92EF92FF920F931F93DF93CF93CDB76E
:10531000DEB7AC970FB6F894DEBF0FBECDBF9CA72B
:105320008BA77B015A01CE018B96BE016F5F7F4F29
:1053300040E00E94C61B082F882309F072C0E114C8
:10534000F10409F444C089819A819C838B83198676
:105350001A861B861C86A3E0CA2ED12CCC0EDD1E1D
:10536000C60140E050E060E070E00E94EC1F182FA2
:10537000882331F5C60161E070E00E948427182F70
:105380008823F1F420E030E0F701E20FF31FAD8D48
:10539000BE8DA20FB31F8C9180832F5F3F4F2B30A8
:1053A000310591F7F7012BE030E013862115310527
:1053B00071F021503040828531978032B1F307C0BF
:1053C000143019F4F701108202C0112359F5A11409
:1053D000B10439F1E981FA81478D50A161A172A12F
:1053E000CF010E94261B182F8823E1F4E981FA815E
:1053F0008081833019F0843039F403C083E490E075
:1054000005C084E690E002C087E290E0C3968E0F6C
:105410009F1F0E948512F5016083718382839383AD
:1054200001C0102F812FAC960FB6F894DEBF0FBECF
:10543000CDBFCF91DF911F910F91FF90EF90DF9043
:10544000CF90BF90AF9008958F929F92AF92BF92EE
:10545000CF92DF92EF92FF920F931F93CF93DF9340
:10546000EC018B01C880D980FB0180818F3271F003
:105470008C3561F0F60183899489A589B6898E837C
:105480009F83A887B9870CC00F5F1F4FF8018081E9
:105490008F32D1F38C35C1F31E821F821886198694
:1054A000F8018081803250F03CE1A32EB12CAC0E8B
:1054B000BD1E20E2922E95E0892E0BC080E88FA3BE
:1054C000CE0140E050E060E070E00E94EC1F682FE9
:1054D0000FC1F5018BE090E091920197E9F7F80197
:1054E00080818E3241F040E050E060E070E088E082
:1054F000E82EF12C28C0DE0180E090E0F801E80FF2
:10550000F91FE0810196EE3249F41196833091053E
:1055100009F4EBC05B96EC935B97F0CFEF3229F088
:10552000EC3539F0E13208F0E0C0E13210F424E269
:1055300001C020E2080F191F2FA3EDC048E050E082
:10554000BBE0EB2EF12CF801E60FF71F20816F5F17
:105550007F4F213208F461C02F3211F02C3569F4ED
:10556000F801E60FF71F03C06F5F7F4F3196808110
:105570008F32D1F38C35C1F350C02E3219F04E1555
:105580005F0540F0FBE0EF16F10409F4AEC02E32E7
:10559000A9F2ABC0213808F4B9C0203A30F0203E5F
:1055A00008F4B4C02D3F08F0B1C0F801E60FF71FB2
:1055B0003081303408F499C03F3730F03F3709F478
:1055C00094C03D3F08F091C0C701019748175907A3
:1055D00008F08BC06F5F7F4FFE01E40FF51F248F33
:1055E000CA010196FE01E80FF91F348FAC0112C009
:1055F00031968081882329F090E08A179B07C1F7B4
:1056000074C0822F81568A3108F42052FE01E40FC3
:10561000F51F248F4F5F5F4F96CF452B09F465C070
:105620008C8D853E09F48C8E213210F080E001C013
:1056300084E0060F171F8FA36EC04E895F89688DA7
:10564000798DC7010E94261B682F882329F5EA8DD2
:10565000FB8D8081882311F464E01EC083858F73E5
:105660008C83838583FD12C0DF01F5014BE050E0A0
:105670008D91282F30E08191281B310941505040F5
:1056800019F0232BA9F302C0232B31F0CE0160E0E7
:1056900070E00E94482348C08FA1662391F06430D7
:1056A00039F590E09C012470307085FF07C0232BF2
:1056B00009F40FCF80E88FA360E01AC0232BB9F064
:1056C00017C082FD15C08C8184FF11C06E857F8557
:1056D00071706D5C7F4F6C0D7D1DC6010E94C812FC
:1056E0006E837F8388879987F4CE66E001C065E08A
:1056F000862FDF91CF911F910F91FF90EF90DF9058
:10570000CF90BF90AF909F908F900895A22FB0E060
:10571000E1E7F4E06ECFE880F980CE0140E050E0B0
:1057200060E070E00E94EC1F682F882309F485CFA9
:10573000B3CF0F931F93DF93CF93CDB7DEB7AC9763
:105740000FB6F894DEBF0FBECDBF9CA78BA78B0111
:10575000CE018B96BE016F5F7F4F42E00E94C61B59
:10576000882369F589819A819C838B836BA57CA5AD
:10577000CE0103960E94242A882309F58AA5807AFF
:1057800011F086E01CC08D8D9E8DF80144815581FD
:1057900060E070E0BA01552744270681178120E0B8
:1057A00030E0402B512B622B732B46960E94B11296
:1057B000E981FA8181E08383CF010E947D1AAC9652
:1057C0000FB6F894DEBF0FBECDBFCF91DF911F9112
:1057D0000F9108950F931F93DF93CF93CDB7DEB74B
:1057E000AC970FB6F894DEBF0FBECDBF9CA78BA7BA
:1057F000062F142FCE018B96BE016F5F7F4F42E0C4
:105800000E94C61B882319F589819A819C838B830A
:105810006BA57CA5CE0103960E94242A8823B9F4A7
:105820008AA5807A11F086E012C0212F2772ED8DB3
:10583000FE8D822F8095938589232023822B838759
:10584000E981FA8181E08383CF010E947D1AAC96C1
:105850000FB6F894DEBF0FBECDBFCF91DF911F9181
:105860000F910895CF92DF92EF92FF921F93DF93F3
:10587000CF93CDB7DEB7AA970FB6F894DEBF0FBEB1
:10588000CDBF9AA789A76B01CE0189967E010894A6
:10589000E11CF11CB70140E00E94C61B182F8823B1
:1058A000A1F469A57AA5C7010E94242A182F88238C
:1058B00061F488A587FF02C016E007C0C114D104B7
:1058C00021F0C701B6010E940813812FAA960FB6D6
:1058D000F894DEBF0FBECDBFCF91DF911F91FF9037
:1058E000EF90DF90CF9008950F931F93DF93CF93A6
:1058F00000D000D0CDB7DEB78C017C836B830097DE
:1059000011F489E03FC0CE010396BE016F5F7F4F67
:1059100040E00E94C61B882391F589819A81F80195
:10592000918380836B817C81C8010E94242A882313
:1059300001F5F80187A187FD0EC0848184FF1EC098
:10594000628D738D89819A810E94C812F8016683E5
:10595000778380879187E981FA8185819681F80133
:1059600093838283C80140E050E060E070E00E94D1
:10597000EC1F843019F0882329F001C085E0F8017C
:10598000118210820F900F900F900F90CF91DF91A6
:105990001F910F9108950F93DF93CF93CDB7DEB78B
:1059A000AE970FB6F894DEBF0FBECDBF9CA78BA7F6
:1059B000CE018B96BE016F5F7F4F40E00E94C61BF9
:1059C000082F882381F589819A819C838B836BA51D
:1059D0007CA5CE0103960E94242A082F882301F576
:1059E0008AA587FF0BC0E981FA8189859A85AB85F5
:1059F000BC85838B948BA58BB68B15C08F8184FF60
:105A000011C089819A819EA78DA76D8D7E8D0E9480
:105A1000C812EDA5FEA5638B748B858B968B03C096
:105A2000843009F405E0802FAE960FB6F894DEBFFF
:105A30000FBECDBFCF91DF910F9108950F931F93AC
:105A4000CF93DF93EC010881198161E070E00E943F
:105A50000A28482F8823F9F44E895F89688D798D4B
:105A6000C8010E94261B482F8823A9F4EA8DFB8DCC
:105A700080E290E011920197E9F7AA8DBB8DFE01BB
:105A80007C962BE030E081918D9321503040D9F706
:105A900081E0F8018383842FDF91CF911F910F91D3
:105AA0000895AF92BF92CF92DF92EF92FF920F9341
:105AB0001F93DF93CF93CDB7DEB7AC970FB6F894B3
:105AC000DEBF0FBECDBF9CA78BA7CE018B96BE01BC
:105AD0006F5F7F4F42E00E94C61BF82E882309F0BB
:105AE000D0C089819A819C838B838E010D5F1F4F6B
:105AF0006BA57CA5C8010E94242AF82E882351F0AA
:105B000084E0F81609F0BDC08AA585FF06C046E00E
:105B1000F42EB7C038E0F32EB4C0C80140E050E026
:105B200060E070E00E9401225B016C01E981FA8172
:105B300081859285A0E0B0E029E0880F991FAA1F17
:105B4000BB1F2A95D1F78D879E87AF87B88BA1148D
:105B5000B104C104D10419F407E0F02E88C081E03B
:105B6000A816B104C104D10419F412E0F12E7FC0CB
:105B70008FEFA8168FEFB8068FEFC8068FEFD80605
:105B800009F491C0CF010E94AB19F82E882309F0C7
:105B90006EC089819A81B601A5010E94011AF82E72
:105BA000882309F064C009811A81B3E3EB2EF12C3C
:105BB000E00EF11EF7018BE090E020E221930197C7
:105BC000E9F78EE2F80183AB80E186AFC801875B1D
:105BD0009F4F40E050E061E278E40E94B112898179
:105BE0009A81B701A60195010E94F712F70120E200
:105BF00030E0808180A3319621503040D1F70C5A9B
:105C00001F4F8EE2F80180830150104029853A85AC
:105C10004B855C8589819A81B8010E94F712E981E0
:105C2000FA81EE24E394E382CE0103960E941E2DB6
:105C3000F82E8823E1F40D8D1E8DC801469640E0B4
:105C400050E061E278E40E94B11289819A81B80142
:105C5000A60195010E94F71280E1F8018387E9818E
:105C6000FA81E382CF010E947D1AF82E0AC0CE018C
:105C70000396B601A50100E010E020E030E00E94AC
:105C80005F268F2DAC960FB6F894DEBF0FBECDBF4A
:105C9000CF91DF911F910F91FF90EF90DF90CF9008
:105CA000BF90AF900895FF24F394E1CFDF92EF927D
:105CB000FF920F931F93DF93CF93CDB7DEB7C657F5
:105CC000D0400FB6F894DEBF0FBECDBF8E010D5889
:105CD0001F4FD8018D939C93FE01EB58FF4F7183AA
:105CE0006083CF010E946213C801BE016F5F7F4FC6
:105CF00042E00E94C61B882309F00BC189819A816A
:105D00009CA38BA363E2E62EF12CEC0EFD1EF801A2
:105D100060817181C7010E94242A882309F0F9C09B
:105D2000FE01E65BFF4F8081807A11F086E0F1C0D2
:105D30008DAD9EAD9C01D901FE0133968D9181936D
:105D4000EE15FF05D9F720E030E08E01055B1F4F0F
:105D5000AE014D5D5F4FF801E20FF31FDA01A20FB4
:105D6000B31F8C9180832F5F3F4F2832310599F705
:105D7000FE01EB58FF4F60817181C8010E94242A07
:105D8000882309F5D80116962D913D914D915C918E
:105D9000199789A59AA5ABA5BCA5281739074A0765
:105DA0005B0709F09CC0F801268537854089518939
:105DB00089A99AA9ABA9BCA9281739074A075B0783
:105DC00009F08DC003C0843009F0A3C08E01055BCB
:105DD0001F4FC8010E941E2D882309F09AC0D801C8
:105DE0005A966D917C915B97DB01FE0170968191D3
:105DF0001D968C931D971196EE15FF05C1F78E85A4
:105E0000FB01838784FD02C080628387E981FA8178
:105E1000DD24D394D382DB011B968C9184FF61C077
:105E20005BE4E52EF12CEC0EFD1E29A53AA54BA551
:105E30005CA5F70186819781A085B1852817390770
:105E40004A075B0709F44DC009811A81C8010E9405
:105E5000C8129B01AC012250304040405040F80134
:105E60008789908DA18DB28D0297A109B10928175C
:105E700039074A075B0708F04BC06185728580E0EF
:105E800090E00E94634EAB01BC01F80183A594A58C
:105E9000A5A5B6A5480F591F6A1F7B1F41155105BF
:105EA00061057105A9F1C8010E94261B69817A81EB
:105EB000882379F5FB01ED5AFF4F81818E3289F4F9
:105EC000D70116962D913D914D915C911997CB017B
:105ED000BF010E94F712E981FA81D38202C088E0F3
:105EE00018C00BA11CA149AD5AAD6BAD7CADC8016A
:105EF0000E94261B882369F4EDADFEAD85EE8083FC
:105F000081E0F801838389819A810E947D1A01C012
:105F100082E0CA58DF4F0FB6F894DEBF0FBECDBF88
:105F2000CF91DF911F910F91FF90EF90DF90089537
:105F3000BF92CF92DF92EF92FF920F931F93DF9366
:105F4000CF93CDB7DEB7C455D0400FB6F894DEBFBF
:105F50000FBECDBF8E010D5A1F4FF8019183808374
:105F6000C801BE016F5F7F4F42E00E94C61B8823BD
:105F700009F05DC089819A819C838B83F8016081DF
:105F80007181CE0103960E94242A882309F04FC014
:105F90008AA585FD02C087FF02C086E048C08F81C8
:105FA000B82E80FF55C060C0F80183899489A58907
:105FB000B689C816D906EA06FB0609F455C01CA71F
:105FC0000BA7C9AADAAAEBAAFCAA8E01055D1F4F8E
:105FD000C80140E050E060E070E00E94EC1F8823C0
:105FE00031F5C80160E070E00E9484278823E1F168
:105FF0008430E1F11CC0ED8DFE8D85EE808381E063
:10600000F8018383C114D104E104F10461F0CE01ED
:106010000396B701A60100E010E020E030E00E9406
:106020005F26882321F489819A810E947D1ACC5AA7
:10603000DF4F0FB6F894DEBF0FBECDBFCF91DF911B
:106040001F910F91FF90EF90DF90CF90BF90089538
:1060500009811A816D8D7E8DC8010E94C8126B0165
:106060007C01B4FCA1CF02C087E0E1CF0B811C8191
:10607000498D5A8D6B8D7C8DC8010E94261B88230B
:1060800009F4B9CFD4CF2F923F924F925F926F9283
:106090007F928F929F92AF92BF92CF92DF92EF92B8
:1060A000FF920F931F93DF93CF93CDB7DEB7649723
:1060B0000FB6F894DEBF0FBECDBF9A8B898B7C8B59
:1060C0006B8B8A01CE014196BE016F5F7F4F40E02E
:1060D0000E94C61B682F882309F0CFC0E981FA818E
:1060E000D801ED93FC932785308941895289E7884F
:1060F000F08C018D128DD801C7010297A109B10959
:1061000082179307A407B50738F0EB89FC89208331
:10611000318342835383B1C08081813009F03FC015
:10612000FC83EB83AA24BB246501F2E0EF2EF12C63
:10613000012D112DE3E08E2E912C8C0E9D1EC4019D
:10614000B801A7010E94101F6F3FFFEF7F07FFEF0D
:106150008F07FFEF9F0711F491E07EC0613071055A
:106160008105910509F475C06115710581059105D9
:1061700029F40894A11CB11CC11CD11C0894E11C79
:10618000F11C011D111DE981FA818789908DA18D76
:10619000B28DE816F9060A071B0788F25CC043A017
:1061A00054A065A076A0AA24BB2465018824992464
:1061B0008114910479F489819A81B301A2010E942A
:1061C000261B982F882309F047C00894411C511CB6
:1061D000611C711CA981BA818C91F401F396823003
:1061E000A9F4EA0FFB1F31802224A80DB91DD39614
:1061F0008C9190E082299329892B29F40894A11C81
:10620000B11CC11CD11CC401029612C0CD018E0F5D
:106210009F1F0E9485129F70611571058105910570
:1062200029F40894A11CB11CC11CD11CC401049602
:106230000894E108F10801091109E114F1040105CC
:10624000110549F07FEF872E71E0972E8822992261
:10625000AFCF92E001C090E0AB89BC89AD92BD9216
:10626000CD92DC921397E981FA81A786B08AC18A20
:10627000D28A848181608483692F862F64960FB6C9
:10628000F894DEBF0FBECDBFCF91DF911F910F916C
:10629000FF90EF90DF90CF90BF90AF909F908F9046
:1062A0007F906F905F904F903F902F9008952F9226
:1062B0003F924F925F926F927F928F929F92AF9296
:1062C000BF92CF92DF92EF92FF920F931F93DF93D3
:1062D000CF93CDB7DEB7C254D0400FB6F894DEBF2F
:1062E0000FBECDBF21E4E22EF12CEC0EFD1EFC0111
:1062F000D7018D939C934B011082C701BE016F5F44
:106300007F4F40E00E94C61B882311F0982FD3C016
:10631000E981FA81FA8FE98F83899489A589B68901
:106320008F8F98A3A9A3BAA3840189E1A82EB12CC9
:10633000AC0EBD1EB3E04B2E512C4C0E5D1EABE0DF
:106340002A2E312C2C0E3D1E37017CC0C50140E2A7
:1063500050E060E070E00E94EC1F982F882309F065
:106360007CC04FA558A969A97AA989819A810E9400
:10637000261B982F882309F070C06BA97CA98981FE
:106380009A810E94C8126F8F78A389A39AA3C5012E
:1063900040E050E060E070E00E94EC1F982F8823FE
:1063A00009F05BC0C50160E070E00E948427982F6F
:1063B0008823A1F46BA97CA989819A810E94C812C3
:1063C000C616D706E806F90609F490C0C50160E0D4
:1063D00070E00E944823982F882321F39430E9F538
:1063E000A80192E03BC02F5F3F4F81918823D9F7EE
:1063F000C90103960817190718F4A80191E12EC0E6
:10640000285F3F4FD201A20FB31F28503040A80190
:106410000BC041505040F30160817181640F751FC2
:106420008C91FB0180831197A215B30591F72095FC
:106430003095020F131FD301ED91FC91E00FF11F76
:10644000BFE2B083CF8CD8A0E9A0FAA0C114D104D8
:10645000E104F10409F07ACF90E0A801BE016F5B7E
:106460007F4FFB0120813181992319F5809114061A
:10647000805DD9018D938AE3F90181839D012F5FAE
:106480003F4F0815190531F48FE211968C932F5F59
:106490003F4F0FC0DB01ED91FC911197E40FF51F09
:1064A0008081F90181939F014F5F5F4F4815590526
:1064B00090F3D9011C92892FCE5BDF4F0FB6F89471
:1064C000DEBF0FBECDBFCF91DF911F910F91FF9027
:1064D000EF90DF90CF90BF90AF909F908F907F9084
:1064E0006F905F904F903F902F900895C501B2013B
:1064F0000E940813FE013C9620E030E076CFEF9238
:10650000FF920F931F93DF93CF9300D0CDB7DEB7E9
:106510007C01BE016F5F7F4F0E94E21A982F882393
:1065200009F040C0F701868586FF3CC0448D558D3B
:10653000668D778D89819A810E94261B982F8823EA
:1065400089F5F70100A111A1F80183858062838795
:10655000F701268137814085518580819181B8017D
:106560000E94F712F7014285538564857585C8013D
:106570004C960E94B112C801469640E050E061E29C
:1065800078E40E94B112F801128A138AE981FA8133
:1065900081E08383CF010E947D1A982FF7018685C1
:1065A0008F7B8687892F0F900F90CF91DF911F915E
:1065B0000F91FF90EF9008950F931F93DF93CF9368
:1065C00000D0CDB7DEB78C010E947F32882359F40A
:1065D000C801BE016F5F7F4F0E94E21A882319F441
:1065E000F801118210820F900F90CF91DF911F91CF
:1065F0000F9108952F923F924F925F926F927F92E8
:106600008F929F92AF92BF92CF92DF92EF92FF92C2
:106610000F931F93DF93CF93CDB7DEB729970FB6B4
:10662000F894DEBF0FBECDBF5C01162F072F1A01F5
:106630003F832E83D9011D921C928887B986BE01A3
:106640006F5F7F4F0E94E21A8D83882309F0D2C1C9
:10665000F501F785FD83FF2309F0CCC1D5011E9616
:106660008C9181FD03C0B7E0BD83C4C1F5012089D1
:10667000318942895389C101A0E0B0E0820F931FA4
:10668000A41FB51F82179307A407B50718F41901B3
:1066900020943094812F902F9C013C832B839FC1A9
:1066A000D50150962D913D914D915C915397DA0112
:1066B000C9019170A070B0700097A105B10509F0F3
:1066C00025C1DA01C901E9E0B695A79597958795A7
:1066D000EA95D1F7E981FA816184728408946108AE
:1066E0007108682279226114710409F052C02115E1
:1066F00031054105510589F4F50126813781408531
:1067000051852115310541055105D1F488859985BB
:1067100040E050E060E070E009C0D50154964D9132
:106720005D916D917C915797888599850E94012292
:106730009B01AC01611571058105910509F453C1F7
:10674000213031054105510511F482E0F3C02F3F9E
:10675000FFEF3F07FFEF4F07FFEF5F0731F481E0E7
:10676000D5011F968C938D8345C1F501248B358B04
:10677000468B578B86819781A085B1850097A105AF
:10678000B10539F4D50116962D933D934D935C9345
:106790001997E981FA8127A530A941A952A9D50104
:1067A0005896ED90FD900D911C915B972E153F052D
:1067B0004007510731F4CF010E94AB19882309F03B
:1067C000B8C049805A80D50154962D913D914D9184
:1067D0005C9157972250304040405040F2018789E9
:1067E000908DA18DB28D0297A109B10928173907A3
:1067F0004A075B07B8F401851285B80180E090E094
:106800000E94634E9B01AC01F20183A594A5A5A54E
:10681000B6A5280F391F4A1F5B1F211531054105F9
:10682000510511F482E09CCF6301EE24FF24C20ED7
:10683000D31EE41EF51E4101892C992486948114EF
:10684000910409F444C0C401860D971D0817190767
:1068500018F4480186189708F20181816B817C81C8
:10686000A701960184010E945912882309F077CF6D
:10687000E981FA8127A530A941A952A92C193D091E
:106880004E095F09C401A0E0B0E0281739074A07A4
:106890005B07C0F4DF01D39669E0220F331F441F6A
:1068A000551F6A95D1F7EB81FC81E20FF31F9F0121
:1068B00020503E4F81918D93E217F307D9F7E9817C
:1068C000FA8113828401102F0027110F58C0F5019F
:1068D000208931894289538982859385A485B5852C
:1068E000281739074A075B0760F0C2010E94AB19FD
:1068F000882309F034CFE981FA81C7A6D0AAE1AA9A
:10690000F2AAF501C08ED18EE28EF38ED50150969B
:10691000ED90FD900D911C91539758964D915D917E
:106920006D917C915B9789819A810E94261B8823B7
:1069300021F081E0F501878716CFC701917020E033
:1069400032E0281B390B81012215330508F4890137
:10695000D50150968D919C9151979170C396E98184
:10696000FA81E80FF91F9801AB81BC818D91819369
:1069700021503040D9F7E981FA81B1E0B383201A80
:10698000310AEE81FF8180819181800F911F918377
:1069900080832B813C81200F311F3C832B83C801D6
:1069A000A0E0B0E0F5012089318942895389820F46
:1069B000931FA41FB51F808B918BA28BB38B228555
:1069C00033854485558582179307A407B50710F4CE
:1069D000DA01C901F50182879387A487B58721145D
:1069E000310409F05DCED5011E968C911E9780640E
:1069F0001E968C938D8129960FB6F894DEBF0FBE3C
:106A0000CDBFCF91DF911F910F91FF90EF90DF905D
:106A1000CF90BF90AF909F908F907F906F905F903E
:106A20004F903F902F900895EF92FF920F931F93F6
:106A3000DF93CF9300D0CDB7DEB78C01FC0142814C
:106A4000538157FD2AC0E40FF51F66837A0108942D
:106A5000E11CF11CFDE3EF16F104BCF0BC016A5F20
:106A60007F4FFC0180819181A7019E012F5F3F4FE5
:106A70000E94FA3289819A818E159F0521F0EE24B9
:106A8000EA94FE2C02C0EE24FF24F801F382E28295
:106A9000848195810196958384830F900F90CF9187
:106AA000DF911F910F91FF90EF9008950F931F9327
:106AB000DF93CF9300D0CDB7DEB78C01FC014281CC
:106AC000538157FD17C0BC016A5F7F4F8081918160
:106AD0009E012F5F3F4F0E94FA32882359F4F8013C
:106AE0002281338189819A812817390719F46481B9
:106AF000758102C06FEF7FEFCB010F900F90CF91A8
:106B0000DF911F910F9108952F923F924F925F92C4
:106B10006F927F928F929F92AF92BF92CF92DF92AD
:106B2000EF92FF920F931F93DF93CF93CDB7DEB712
:106B3000CA56D0400FB6F894DEBF0FBECDBFCF57B8
:106B4000DF4F68807980C158D040C158DF4F8881BD
:106B50009981CF57D0409AA389A31CA21BA21EA241
:106B60001DA263E8E62EF12CEC0EFD1E5DE2252E43
:106B700001C07201D3016C91662309F478C10894B5
:106B8000611C711C653219F0CE018196ABC0F30116
:106B9000B1903F01F0E3BF1631F4D301BD903D0148
:106BA000332433940AC0BDE2BB1611F0332405C070
:106BB000F301B1903F0142E0342E8824992413C0A0
:106BC000C40133E0880F991F3A95E1F7880C991CAE
:106BD000880E991E8B0C911C80ED9FEF880E991EDC
:106BE000D301BD903D018B2D80538A3048F3BCE624
:106BF000BB1619F0ECE4BE1629F4F4E03F2AD301E9
:106C0000BD903D01BB2009F432C18B2D81568A31E4
:106C100010F0AB2D02C0AB2DA052AF34A1F0A035C7
:106C200048F4A33409F44DC0A43479F0A23409F037
:106C300056C05CC0A53549F0A83509F44EC0A3354F
:106C400009F04DC004C028E052C02AE050C082E0E4
:106C5000482E512C4E0C5F1CF701E080F18000E0C3
:106C600010E002C00F5F1F4FF701E00FF11F80819E
:106C70008823C1F731FE06C014C0CE01819660E2C0
:106C80000E9414350F5F1F4FC801019788159905A1
:106C9000A0F307C00894E11CF11CCE0181960E946C
:106CA0001435D7016C916623A9F707C0CE018196F0
:106CB00060E20E9414350F5F1F4F08151905B0F3ED
:106CC00058CF02E0402E512C4E0C5F1CCE01819615
:106CD000F70160810E9414354CCF20E108C0CE013D
:106CE00081966B2D0E941435270143CF22E032FE9E
:106CF0000DC014E0412E512C4E0C5F1CF701E080BA
:106D0000F18002811381A43409F514C087010E5F5C
:106D10001F4FF70160817181A43439F428017B0190
:106D20000027F7FC0095102F05C028017B0100E02B
:106D300010E00CC017FF0AC010950095F094E09485
:106D4000E11CF11C011D111DF8E03F2ACC24DD24BB
:106D5000822F90E0A0E0B0E0AB968CAF9DAFAEAFDD
:106D6000BFAFAB97C801B701AB962CAD3DAD4EADF3
:106D70005FADAB970E94A94EA62EC801B701AB9696
:106D80002CAD3DAD4EAD5FADAB970E94A94EC90194
:106D9000DA017C018D01E9E0EA1538F4F8E7BF1665
:106DA00011F027E001C027E2A20EE1E0F0E0EC0FD5
:106DB000FD1FEC0DFD1D20E3A20EA0820894C11C56
:106DC000D11C0097A105B10521F080E2C816D104BD
:106DD00049F6832D33FE0AC0E1E0F0E0EC0FFD1F21
:106DE000EC0DFD1D20820894C11CD11C80FD03C048
:106DF000B0E2BB2E02C0A0E3BA2E81FF02C0860122
:106E00000EC0860105C0CE0181966B2D0E941435FF
:106E10000F5F1F4FC801019788159905A0F30894CB
:106E2000C108D108F1E0EF2EF12CEC0EFD1EEC0CA8
:106E3000FD1C0894C11CD11C0894C108D108CE01C6
:106E40008196D7016C910E9414350894E108F108ED
:106E5000C114D10489F707C0CE0181966B2D0E9421
:106E600014350F5F1F4F08151905B0F382CECE0100
:106E700081960E945635C659DF4F0FB6F894DEBF93
:106E80000FBECDBFCF91DF911F910F91FF90EF907B
:106E9000DF90CF90BF90AF909F908F907F906F903A
:106EA0005F904F903F902F900895EF92FF920F9335
:106EB0001F93DF93CF93CDB7DEB7C654D0400FB644
:106EC000F894DEBF0FBECDBF8C017A8369831C822C
:106ED0001B821E821D827E010894E11CF11C05C0EC
:106EE0000F5F1F4FC7010E941435F80160816623B0
:106EF000B9F7C7010E945635CA5BDF4F0FB6F89449
:106F0000DEBF0FBECDBFCF91DF911F910F91FF90DC
:106F1000EF9008950F931F93DF93CF93CDB7DEB714
:106F2000C654D0400FB6F894DEBF0FBECDBF282F99
:106F30007A8369831C821B821E821D828E010F5FF1
:106F40001F4FC801622F0E941435C8010E94563598
:106F5000CA5BDF4F0FB6F894DEBF0FBECDBFCF9137
:106F6000DF911F910F9108954F925F926F927F92E0
:106F70008F929F92AF92BF92CF92DF92EF92FF9249
:106F80000F931F93DF93CF93CDB7DEB7E4970FB680
:106F9000F894DEBF0FBECDBF2C017CA76BA7009776
:106FA00019F469E0962EB0C15FE3B52EB422CE018C
:106FB0008B96BE016F5F7F4F4B2D0E94C61B8823AF
:106FC00009F0C4C189819A819C838B836BA57CA5C0
:106FD000CE0103960E94242A982E882329F48AA59C
:106FE00087FF02C036E0932E2B2D30E0C9018C7153
:106FF0009070892B09F477C0992079F084E0981675
:1070000009F0A0C1CE0103960E941E2D982E882360
:1070100009F098C198E0B92A06C08F81817109F002
:107020008EC1B2FC89C1B3FE6BC00D8D1E8D8981EE
:107030009A81B8010E94C8126B017C01C8010E96AA
:1070400040E050E061E278E40E94B112ED8DFE8DE7
:1070500080E283876D8D7E8D89819A8120E030E08A
:1070600040E050E00E94F7128D8D9E8D4C9640E0DE
:1070700050E060E070E00E94B112E981FA8181E0A5
:107080008383C114D104E104F104D1F187A590A94F
:10709000A1A9B2A98DA79EA7AFA7B8ABCE010396B1
:1070A000B701A60100E010E020E030E00E945F267A
:1070B000982E882309F023C189819A814DA55EA568
:1070C0006FA578A90E94261B982EE981FA81089461
:1070D000C108D108E108F108C386D486E586F686A2
:1070E000882371F00CC1992009F02CC18F8184FF95
:1070F00003C024E0922E03C1B1FE02C080FD1FC177
:10710000B3FE02C090E4B92AE980FA80F70187A5AE
:1071100090A9A1A9B2A9F201848F958FA68FB78FEC
:107120000D8D1E8D11A300A3C701B8010E94C812C6
:10713000962E772E682E892ED20116966C9316976E
:1071400017967C93179718968C93189719969C937B
:10715000C8014C960E9485128B019C01F201628746
:10716000738784879587F182E082D70115968D9188
:107170009C91169793838283B6861786108E118E04
:10718000128E138ED20150961D921D921D921C924A
:107190005397B5FEB8C0011511052105310509F455
:1071A000B2C0008B118B228B338BD70119968D9136
:1071B0009C911A975C01CC24DD2499E0AA0CBB1C9D
:1071C000CC1CDD1C9A95D1F7892D972DA62DB82DB5
:1071D000AC01BD0178018901742C852C8827992781
:1071E000DC018A199B09AC09BD0989AB9AABABAB31
:1071F000BCAB23C0872D982D0E94101FAB01BC0192
:10720000423051056105710518F482E0982E01C0E5
:1072100099244F3F9FEF59079FEF69079FEF790729
:1072200011F49924939489A99AA9ABA9BCA9E80E51
:10723000F91E0A1F1B1F992031F4AE14BF04C006AB
:10724000D106C0F29924D20154964D935D936D936B
:107250007C935797992009F078C0D801C7019170A5
:10726000A070B0700097A105B10509F44DC0698008
:107270007A80BEEFAB2EBFEFBB2EBFEFCB2EBFEFA2
:10728000DB2EA40EB51EC61ED71EF3018789908D76
:10729000A18DB28D0297A109B109A816B906CA0637
:1072A000DB0658F52185328540E050E0C601B50186
:1072B0000E94634E9B01AC01F30183A594A5A5A593
:1072C000B6A5280F391F4A1F5B1F2115310541053F
:1072D000510599F0A9E016950795F794E794AA95BA
:1072E000D1F72E0D3F1D401F511FD20158962D93EF
:1072F0003D934D935C935B9707C0F2E09F2EF201A4
:107300001182108201C09924892DE4960FB6F89459
:10731000DEBF0FBECDBFCF91DF911F910F91FF90C8
:10732000EF90DF90CF90BF90AF909F908F907F9025
:107330006F905F904F900895E8E09E2EE0CF77E049
:10734000972EDDCF992001F3DACF892D982ED7CF54
:107350002F923F924F925F926F927F928F929F9265
:10736000AF92BF92CF92DF92EF92FF920F931F9353
:10737000DF93CF93CDB7DEB729970FB6F894DEBF72
:107380000FBECDBF5C01162F072F1A013F832E833E
:10739000F901118210828887B986BE016F5F7F4F25
:1073A0000E94E21A8D83882309F052C1F501F78506
:1073B000FD83FF2309F04CC1F501868580FD03C0E4
:1073C000F7E0FD8345C1F501228533854485558568
:1073D00080899189A289B389281B390B4A0B5B0BE1
:1073E000C101A0E0B0E0281739074A075B0708F49D
:1073F0001901812F902F9C013C832B8325C1F5011E
:107400002089318942895389DA01C9019170A070BC
:10741000B0700097A105B10509F0CAC0DA01C90131
:1074200019E0B695A795979587951A95D1F7E981B3
:10743000FA81018512850150104008231923011596
:10744000110561F5211531054105510531F4F501AD
:10745000668177818085918509C0F50144895589C8
:1074600066897789888599850E94101F6230710529
:107470008105910508F441C06F3FFFEF7F07FFEFE3
:107480008F07FFEF9F0729F481E0F50187878D8340
:10749000DFC0F501648B758B868B978B49805A8092
:1074A000F50124893589468957892250304040406A
:1074B0005040F2018789908DA18DB28D0297A1096C
:1074C000B109281739074A075B07B8F46184728449
:1074D000B30180E090E00E94634E9B01AC01F20199
:1074E00083A594A5A5A5B6A5280F391F4A1F5B1F24
:1074F000211531054105510511F482E0C6CF68011F
:10750000EE24FF24C20ED31EE41EF51E4101892C79
:10751000992486948114910409F445C0C401800F14
:10752000911F6816790618F44301801A910AF20136
:1075300081816B817C81A701960184010E94681280
:10754000882309F0A1CFE981FA818381882331F171
:1075500027A530A941A952A92C193D094E095F0957
:10756000C401A0E0B0E0281739074A075B07B0F470
:10757000A9E0220F331F441F551FAA95D1F78B8115
:107580009C81820F931FDF01D396FC019C01205048
:107590003E4F8D918193E217F307D9F78401102FA5
:1075A0000027110F31C0F501C08ED18EE28EF38E0F
:1075B000F501E088F18802891389408D518D628D33
:1075C000738D89819A810E94261B882309F05CCFE4
:1075D000C701917020E032E0281B390B8101221590
:1075E000330508F48901F501808991899170C3966A
:1075F000E981FA81E80FF91FB801AB81BC81819163
:107600008D9361507040D9F7201A310AEE81FF81C5
:1076100080819181800F911F918380832B813C8198
:10762000200F311F3C832B83980140E050E0F5018F
:1076300080899189A289B389820F931FA41FB51FE6
:10764000808B918BA28BB38B2114310409F0D7CEA0
:107650008D8129960FB6F894DEBF0FBECDBFCF91B6
:10766000DF911F910F91FF90EF90DF90CF90BF902F
:10767000AF909F908F907F906F905F904F903F90D2
:107680002F9008954F925F926F927F928F929F9268
:10769000AF92BF92CF92DF92EF92FF920F931F9320
:1076A000DF93CF9300D000D0CDB7DEB76C015B0184
:1076B0004A017C0100E010E00894A108B10883E0D1
:1076C000482E512C4C0E5D1E3E010894611C711C0D
:1076D00013C0C401B30141E050E092010E94A839F7
:1076E0008B819C81019759F48981F70181937F01F6
:1076F0000F5F1F4F8A3019F00A151B0554F3F7016D
:107700001082012B11F4CC24DD24C6010F900F90C0
:107710000F900F90CF91DF911F910F91FF90EF90FD
:10772000DF90CF90BF90AF909F908F907F906F90A1
:107730005F904F90089528EE33E0AC01429FC00166
:10774000439F900D529F900D1124A0E0B0E08093D4
:10775000190690931A06A0931B06B0931C062FEFF0
:107760002FB9779BFECF4FB18091190690911A06E1
:10777000A0911B06B0911C060097A105B10599F0D8
:107780008091190690911A06A0911B06B0911C06D3
:107790000197A109B1098093190690931A06A09345
:1077A0001B06B0931C064F3F61F080911906909123
:1077B0001A06A0911B06B0911C060097A105B10501
:1077C00079F620E030E04F3F11F421E030E0C901CC
:1077D0000895809162008F7E809362008FEF8FB951
:1077E000779BFECF8FB184EF91E00E949B3B892B6A
:1077F00019F021E030E00CC080916200806180933C
:1078000062008FEF8FB9779BFECF8FB120E030E021
:10781000C9010895FC0180E197E2A0E0B0E0809307
:10782000150690931606A0931706B09318063FEF1F
:107830003FB9779BFECF2FB1809115069091160628
:10784000A0911706B09118060097A105B10599F00F
:107850008091150690911606A0911706B091180612
:107860000197A109B1098093150690931606A0937C
:107870001706B09318062F3F69F480911506909172
:107880001606A0911706B09118060097A105B1053C
:1078900079F61FC02E3FE9F49FEF9FB9779BFECF8B
:1078A0008FB180839FB9779BFECF8FB18183625068
:1078B000704011F03296F1CF8FEF8FB9779BFECFEA
:1078C0008FB18FEF8FB9779BFECF8FB121E030E082
:1078D00002C020E030E0C90108951F93CF93DF93E9
:1078E000EC01162F84EF91E00E949B3B892B19F449
:1078F00020E030E02BC01FB9779BFECF8FB11D3F3A
:1079000019F120E032E088818FB9779BFECF898121
:107910008FB9779BFECF2250304011F02296F3CFE3
:107920008FEF8FB9779BFECF8FB18FEF8FB9779B9A
:10793000FECF8FB18FEF8FB9779BFECF8FB120E055
:1079400030E08F71853011F421E030E0C901DF9122
:10795000CF911F910895DF92EF92FF920F931F93A3
:10796000D82E7A018B0187FF0CC087E340E050E0FE
:1079700060E070E00E94AB3C823008F056C08FE7B8
:10798000D8228CE0D81681F08091620080618093CB
:1079900062008FEF8FB9779BFECF8FB10E94E93BDA
:1079A000892B11F48FEF41C08D2D80648FB9779BA7
:1079B000FECF8FB1812F9927AA27BB278FB9779B3D
:1079C000FECF8FB1C801AA27BB278FB9779BFECF07
:1079D0008FB1BB27A12F902F8F2D8FB9779BFECF13
:1079E0008FB1EFB8779BFECF8FB1DD2011F485E921
:1079F00006C088E0D81611F487E801C081E08FB98D
:107A0000779BFECF8FB18CE0D81629F48FEF8FB91A
:107A1000779BFECF8FB19AE02FEF2FB9779BFECFE8
:107A20008FB187FF02C09150C1F71F910F91FF9056
:107A3000EF90DF900895EF92FF920F931F93DF93E3
:107A4000CF9300D000D0CDB7DEB787EE92E8A0E0AC
:107A5000B0E00BC08091150690911606A091170614
:107A6000B09118060197A109B1098093150690936A
:107A70001606A0931706B0931806809115069091EC
:107A80001606A0911706B09118060097A105B1053A
:107A900009F78091AC0481FD24C180B58B7F80BD46
:107AA000BB9887B3876087BB8091610080618093BA
:107AB000610088B3857F88BB88B3856088BB81E51A
:107AC0008DB9709882E58DB98AE09FEF9FB9779B59
:107AD000FECF2FB18150D1F740E050E060E070E080
:107AE0000E94AB3C813009F0E6C080E197E2A0E063
:107AF000B0E08093150690931606A0931706B093F6
:107B0000180688E04AEA51E060E070E00E94AB3C71
:107B1000813009F079C07E010894E11CF11C8701D5
:107B20009FEF9E012B5F3F4F9FB9779BFECF8FB199
:107B3000F80181938F01E217F307B1F78B81813050
:107B400009F0B9C08C818A3A09F0B5C01FC0809194
:107B5000150690911606A0911706B0911806009789
:107B6000A105B10599F08091150690911606A09196
:107B70001706B09118060197A109B109809315065F
:107B800090931606A0931706B093180680911506D9
:107B900090911606A0911706B09118060097A105BE
:107BA000B10549F089EA40E050E060E070E40E94ED
:107BB000AB3C882361F68091150690911606A09142
:107BC0001706B09118060097A105B10509F473C016
:107BD0008AE340E050E060E070E00E94AB3C882324
:107BE00009F069C09FEF9FB9779BFECF8FB1F70176
:107BF00081937F01E017F107B1F7898186FD02C00B
:107C000014E05AC01CE058C089EA40E050E060E04F
:107C100070E00E94AB3C823018F001E011E022C01D
:107C200009EA12E01FC08091150690911606A091F6
:107C30001706B09118060097A105B10599F080913B
:107C4000150690911606A0911706B0911806019797
:107C5000A109B1098093150690931606A093170603
:107C6000B09318068091150690911606A0911706FC
:107C7000B09118060097A105B10549F0802F40E0AA
:107C800050E060E070E00E94AB3C882361F6809198
:107C9000150690911606A0911706B0911806009748
:107CA000A105B10541F080E140E052E060E070E004
:107CB0000E94AB3C811110E010931D068091620080
:107CC0008061809362008FEF8FB9779BFECF8FB179
:107CD000112339F08091AC048E7F8093AC0480E551
:107CE0008DB98091AC040F900F900F900F90CF91B1
:107CF000DF911F910F91FF90EF9008958091AC0458
:107D00000895FF920F931F93CF93DF938C01E901A6
:107D10002115310511F484E042C08091AC0480FF4C
:107D200002C083E03CC080911D0683FD07C0F9E0DE
:107D3000440F551F661F771FFA95D1F7C230D10542
:107D400018F4E1E1FE2E02C032E1F32E8F2D0E94E5
:107D5000AB3C8823B1F4C80160E072E00E940A3CA9
:107D6000892B29F0219719F000501E4FF4CF82E1A2
:107D7000F81639F48CE040E050E060E070E00E94DA
:107D8000AB3C809162008061809362008FEF8FB97D
:107D9000779BFECF8FB180E0CD2B09F081E0DF91A2
:107DA000CF911F910F91FF900895CF92DF92EF92A4
:107DB000FF920F931F93CF93DF936C017A018B0196
:107DC000E9012115310511F484E05EC08091AC0415
:107DD00080FF02C083E058C08091AC0482FF02C0E3
:107DE00082E052C080911D0690E083FD07C0A9E0AB
:107DF000EE0CFF1C001F111FAA95D1F7C130D10551
:107E000071F488E1B801A7010E94AB3C882371F5A9
:107E1000C6016EEF0E946D3CC0E0D0E023C08670CA
:107E20009070892B31F0AE0160E070E087E90E942C
:107E3000AB3C89E1B801A7010E94AB3C8823B1F4B7
:107E4000C6016CEF0E946D3C892B39F0219729F017
:107E500080E092E0C80ED91EF3CF80E090E06DEF95
:107E60000E946D3C892B11F4C1E0D0E0809162004A
:107E70008061809362008FEF8FB9779BFECF8FB1C7
:107E800080E0CD2B09F081E0DF91CF911F910F9120
:107E9000FF90EF90DF90CF900895CF92DF92EF9216
:107EA000FF920F931F93DF93CF93CDB7DEB7609709
:107EB0000FB6F894DEBF0FBECDBF982F8B01809117
:107EC000AC0480FF02C023E0B3C3933309F4B8C10C
:107ED000943398F4933009F4BAC0943028F4992379
:107EE00011F19130F1F431C0973009F427C2923387
:107EF00009F4A1C19430A9F445C1963309F4FDC138
:107F0000973330F4943309F4B7C1953351F4D0C1A9
:107F1000983309F4C1C2983308F417C2993309F4AD
:107F20002EC324E085C30E94E93BAC01809162002E
:107F30008061809362008FEF8FB9779BFECF20E046
:107F4000452B09F072C321E070C389E040E050E0A6
:107F500060E070E00E94AB3C882309F06DC0CE0168
:107F6000019660E170E00E940A3C892B09F464C02C
:107F700089818295869586958370288569857A851D
:107F8000813031F530E040E050E02F7330704070C8
:107F90005070A901332722272F5F3F4F4F4F5F4F6C
:107FA000962F80E0870F911DA0E0B0E0280F391FC9
:107FB0004A1F5B1FFAE0220F331F441F551FFA951B
:107FC000D1F7D8012D933D934D935C93139732C015
:107FD000629566956695637030E0220F331F220F1D
:107FE000331F260F311D2F5F3F4F8F8190E083702D
:107FF0009070982F8827990F990F280F391F40E00C
:1080000050E08E818F706B85661F6627661F860F16
:108010008E5F7370770F870F90E0099704C0220F6F
:10802000331F441F551F8A95D2F7F80120833183EF
:108030004283538320E001C021E08091620080618F
:10804000809362008FEF8FB9779BFECFEEC2809155
:108050001D06F82E82FF2FC08DE840E050E060E062
:1080600070E00E94AB3C882309F081C08FEF8FB98C
:10807000779BFECF8FB1CE01019660E170E00E9448
:108080000A3C892B09F473C080E39FEF9FB9779B6B
:10809000FECF2FB18150D1F72B8522952F7080E133
:1080A00090E0A0E0B0E004C0880F991FAA1FBB1F9A
:1080B0002A95D2F755C089E040E050E060E070E0DA
:1080C0000E94AB3C882309F052C0CE01019660E1CA
:1080D00070E00E940A3C892B09F449C04B858C85CD
:1080E000F1FE1BC0881F8827881F90E00196242F6F
:1080F00030E02F733070220F331F820F931F2E85B5
:10810000229526952695237030E02150304002C0FC
:10811000880F991F2A95E2F721C0282F30E023709D
:108120003070B3E0220F331FBA95E1F78295869540
:108130008770280F311D2F5F3F4F842F90E08C7781
:10814000907095958795959587950196AC01249F9C
:10815000C001259F900D349F900D1124A0E0B0E048
:10816000F80180839183A283B38320E001C021E0E2
:10817000809162008061809362008FEF8FB9779B5E
:10818000FECF53C280911D06C82EDD24C601867025
:108190009070892B09F44BC283E3BE016F5F7F4F60
:1081A0000E944D3F882309F042C2898182958695BD
:1081B0008695837019F48B8586FF39C2D8014D915D
:1081C0005D916D917C9113971496ED90FD900D91BA
:1081D0001C911797C3FC0EC0F9E0440F551F661F92
:1081E000771FFA95D1F7E9E0EE0CFF1C001F111F75
:1081F000EA95D1F780E20E94AB3C882309F017C2D0
:1082000081E2B801A7010E94AB3C882309F00FC2AC
:1082100086E240E050E060E070E00E94AB3C8823E2
:1082200009F005C280E395E70E949B3B20E0892B83
:1082300009F0FEC1FCC180911D06FB01808383C053
:1082400089E040E050E060E070E00E94AB3C8823B1
:1082500041F4C80160E170E00E940A3C20E0892BF3
:1082600009F421E0809162008061809362008FEFC9
:108270008FB9779BFECFD9C18AE040E050E060E043
:1082800070E00E94AB3C882341F4C80160E170E0DB
:108290000E940A3C20E0892B09F421E080916200D1
:1082A0008061809362008FEF8FB9779BFECFBDC155
:1082B0008AE340E050E060E070E00E94AB3C88233D
:1082C00089F4F8019FEF98012D5F3F4F9FB9779B8D
:1082D000FECF8FB18083E217F30711F420E003C0D3
:1082E0003196F4CF21E0809162008061809362003A
:1082F0008FEF8FB9779BFECF98C18DE840E050E0BB
:1083000060E070E00E94AB3C882369F48FEF8FB986
:10831000779BFECF8FB1C80160E470E00E940A3CF9
:1083200020E0892B09F421E0809162008061809334
:1083300062008FEF8FB9779BFECF77C18091AC043D
:1083400081608093AC0420E073C1DB0113964D91F2
:108350005D916D917C91169739E0440F551F661F12
:10836000771F3A95D1F770688C9190E0A0E0B0E06B
:108370002CE1880F991FAA1FBB1F2A95D1F7482B04
:10838000592B6A2B7B2BF801818192810197A0E008
:10839000B0E09170A070B070482B592B6A2B7B2BEA
:1083A00080E30E94AB3C882309F06BC080E197E238
:1083B000A0E0B0E08093150690931606A0931706F0
:1083C000B09318062FEF1FC08091150690911606E6
:1083D000A0911706B09118060097A105B10599F074
:1083E0008091150690911606A0911706B091180677
:1083F0000197A109B1098093150690931606A093E1
:108400001706B09318062FB9779BFECF8FB18F3F19
:1084100069F48091150690911606A0911706B09107
:1084200018060097A105B10579F62BC08E3F49F5D6
:10843000D8011796ED91FC91189711962D913C91CA
:1084400012979FEF07C09FB9779BFECF8FB18193A3
:108450002150304021153105B1F722E032E0F8011A
:1084600081819281281B390B8FEF06C08FB9779BD2
:10847000FECF9FB12150304021153105B9F720E0E2
:1084800001C021E0809162008061809362008FEFE3
:108490008FB9779BFECFC9C0DB0113964D915D91DB
:1084A0006D917C911697F9E0440F551F661F771F59
:1084B000FA95D1F770688C9190E0A0E0B0E0ECE123
:1084C000880F991FAA1FBB1FEA95D1F7482B592B7C
:1084D0006A2B7B2BF801818192810197A0E0B0E0AB
:1084E0009170A070B070482B592B6A2B7B2B81E3C5
:1084F0000E94AB3C8823C1F58FEF8FB9779BFECFED
:108500008FB18EEF8FB9779BFECF8FB1D8011796C1
:10851000ED91FC91189711964D915C9112979A01EB
:1085200008C080818FB9779BFECF31968FB12150E3
:10853000304021153105A9F722E032E0241B350B2C
:108540008FEF06C08FB9779BFECF9FB1215030408F
:1085500021153105B9F78FEF8FB9779BFECF8FB11A
:1085600020E08F71853009F021E080916200806108
:10857000809362008FEF8FB9779BFECF56C0FB01CF
:10858000438154816581768139E0440F551F661F10
:10859000771F3A95D1F77468808190E0A0E0B0E051
:1085A0002CE1880F991FAA1FBB1F2A95D1F7482BD2
:1085B000592B6A2B7B2B828190E0A0E0B0E0482B06
:1085C000592B6A2B7B2B81E30E94AB3C882319F546
:1085D0008FEF8FB9779BFECF8FB18EEF8FB9779BDF
:1085E000FECF8FB1D80111968C918FB9779BFECFBA
:1085F0008FB181E092E02FEF2FB9779BFECF3FB193
:108600000197D1F78FEF8FB9779BFECF8FB120E025
:108610008F71853009F021E0809162008061809344
:1086200062008FEF8FB9779BFECF8FB101C021E041
:10863000822F60960FB6F894DEBF0FBECDBFCF91EC
:10864000DF911F910F91FF90EF90DF90CF900895F1
:108650008091150690911606A0911706B091180604
:10866000982F882369F09150892F90E0A0E0B0E026
:108670008093150690931606A0931706B0931806DC
:108680008091190690911A06A0911B06B0911C06C4
:10869000982F882369F09150892F90E0A0E0B0E0F6
:1086A0008093190690931A06A0931B06B0931C069C
:1086B0008091AC04897F8093AC040895A0E2B0E07F
:1086C000E4E6F3E40C94CB4E69837A838B839C833A
:1086D0002D833E834F835887CE010196BE01675F8D
:1086E0007F4F0E94F545CE010596BE016F5E7F4F1C
:1086F0000E94F5459985923088F089898230C8F0CA
:10870000943019F4823051F404C0843029F492304A
:1087100081F48DEA94E0C6C0923049F420E09A8555
:108720008A89981321E02A87CE010996BBC082303E
:1087300049F420E09A858A89981321E02A8BCE019A
:108740004196B0C02D843E844F8458886D887E88C1
:108750008F88988CEE24FF248701AA24BB2465010E
:1087600040E050E060E070E0E0E0F0E0C1018170E6
:108770009070892BE9F0E60CF71C081D191D9A0171
:10878000AB012A0D3B1D4C1D5D1D80E090E0A0E07B
:10879000B0E0E614F7040805190520F481E090E044
:1087A000A0E0B0E0BA01A901480F591F6A1F7B1F62
:1087B000AA0CBB1CCC1CDD1C97FE08C081E090E01D
:1087C000A0E0B0E0A82AB92ACA2ADB2A3196E03212
:1087D000F10549F0660C771C881C991C5694479447
:1087E00037942794C3CFFA85EA892B893C898B85F6
:1087F0009C85280F391F2E5F3F4F17C0CA0181701B
:108800009070892B61F016950795F794E79480E0B6
:1088100090E0A0E0B0E8E82AF92A0A2B1B2B769515
:108820006795579547952F5F3F4F77FDE7CF0CC072
:10883000440F551F661F771F17FD4160EE0CFF1C8C
:10884000001F111F21503040403090E0590790E048
:10885000690790E4790760F32B8F3C8FDB01CA0135
:108860008F779070A070B07080349105A105B1052C
:1088700061F447FD0AC0E114F1040105110529F076
:10888000405C5F4F6F4F7F4F40781A8EFE1711F09C
:1088900081E08A8F4D8F5E8F6F8F78A383E0898F01
:1088A000CE0149960E942045A096E2E10C94E74E45
:1088B000A8E0B0E0EEE5F4E40C94D34E7B018C012B
:1088C000611571058105910519F482E0898360C005
:1088D00083E089838EE1C82ED12CDC82CB82ED82AD
:1088E000FE820F831887C801B7010E94D144FC01A2
:1088F0003197F7FF3BC0222733272E1B3F0B570131
:108900006801022E04C0D694C794B794A7940A9421
:10891000D2F740E050E060E070E081E090E0A0E05D
:10892000B0E004C0880F991FAA1FBB1F2A95D2F779
:108930000197A109B1098E219F21A023B12300979E
:10894000A105B10521F041E050E060E070E04A2966
:108950005B296C297D294D835E836F8378878EE147
:1089600090E08E1B9F0B9C838B8312C0309781F00D
:108970000E2E04C0EE0CFF1C001F111F0A94D2F72C
:10898000ED82FE820F831887CE1ADF0ADC82CB824B
:108990001A82CE0101960E9420452896EAE00C94A6
:1089A000EF4EEF92FF920F931F937B018C0180E0BB
:1089B000E81680E0F80681E0080780E0180788F4F0
:1089C0008FEFE816F1040105110531F028F088E079
:1089D00090E0A0E0B0E017C080E090E0A0E0B0E060
:1089E00012C080E0E81680E0F80680E0080781E029
:1089F000180728F088E190E0A0E0B0E004C080E132
:108A000090E0A0E0B0E020E230E040E050E0281B41
:108A1000390B4A0B5B0B04C016950795F794E79446
:108A20008A95D2F7F701EB54FB4F8081281B31095F
:108A300041095109C9011F910F91FF90EF900895CD
:108A4000DF92EF92FF920F931F93FC01E480F58079
:108A500006811781D1808081823048F480E090E0E7
:108A6000A0E1B0E0E82AF92A0A2B1B2BA5C084302C
:108A700009F49FC0823021F4EE24FF24870105C051
:108A8000E114F1040105110519F4E0E0F0E096C0ED
:108A9000628173819FEF623879070CF05BC022E836
:108AA0003FEF261B370B2A3131052CF020E030E058
:108AB00040E050E02AC0B801A701022E04C076951C
:108AC0006795579547950A94D2F781E090E0A0E02A
:108AD000B0E004C0880F991FAA1FBB1F2A95D2F7C8
:108AE0000197A109B1098E219F21A023B1230097ED
:108AF000A105B10521F081E090E0A0E0B0E09A018D
:108B0000AB01282B392B4A2B5B2BDA01C9018F775C
:108B10009070A070B07080349105A105B10539F452
:108B200027FF09C0205C3F4F4F4F5F4F04C0215CBF
:108B30003F4F4F4F5F4FE0E0F0E02030A0E03A07BA
:108B4000A0E04A07A0E45A0710F0E1E0F0E0790164
:108B50008A0127C06038710564F5FB01E158FF4FB9
:108B6000D801C7018F779070A070B07080349105E4
:108B7000A105B10539F4E7FE0DC080E490E0A0E066
:108B8000B0E004C08FE390E0A0E0B0E0E80EF91E92
:108B90000A1F1B1F17FF05C016950795F794E7944A
:108BA000319687E016950795F794E7948A95D1F763
:108BB00005C0EE24FF248701EFEFF0E06E2F6795EC
:108BC00066276795902F9F77D794DD24D7948E2FB3
:108BD0008695492F462B582F5D29B701CA011F9151
:108BE0000F91FF90EF90DF900895FC01DB01408131
:108BF00051812281622F6F7770E0221F2227221F6E
:108C00009381892F880F822B282F30E0991F992775
:108C1000991F11969C93119721153105A9F54115BE
:108C200051056105710511F482E037C082E89FEFBC
:108C300013969C938E9312979A01AB0167E0220FD3
:108C4000331F441F551F6A95D1F783E08C930DC0E5
:108C5000220F331F441F551F12968D919C9113971D
:108C6000019713969C938E931297203080E03807DB
:108C700080E0480780E4580758F314962D933D93FD
:108C80004D935C93179708952F3F310579F4411563
:108C900051056105710519F484E08C93089564FF12
:108CA00003C081E08C9312C01C9210C02F5730403B
:108CB00013963C932E93129783E08C9387E0440F96
:108CC000551F661F771F8A95D1F7706414964D93D0
:108CD0005D936D937C93179708952F923F924F92D7
:108CE0005F926F927F928F929F92AF92BF92CF923C
:108CF000DF92EF92FF920F931F93DF93CF93CDB745
:108D0000DEB761970FB6F894DEBF0FBECDBF3C0152
:108D10007F876E876A01FC0117821682838181FD3D
:108D200003C06FEF7FEF6FC39E012F5F3F4F398B03
:108D3000288BF3012381EE85FF8523FD859123FF99
:108D40008191FF87EE87882309F45AC3853251F455
:108D5000EE85FF8523FD859123FF8191FF87EE87B7
:108D6000853229F490E0B3010E944D50E2CF982F54
:108D700010E0882499241032B0F49B3269F09C32C0
:108D800028F4903251F0933271F40BC09D3239F0D7
:108D9000903349F4116028C01260146025C0186037
:108DA00023C0106121C017FD2AC0892F80538A304B
:108DB00078F416FF06C0FAE09F9E902C1124980EBE
:108DC00013C03AE0839E802C1124880E10620CC0E0
:108DD0009E3221F416FD14C3106406C09C3611F4B3
:108DE000106802C0983659F4EE85FF8523FD9591F1
:108DF00023FF9191FF87EE87992309F0BCCF892F3C
:108E00008554833020F4812F8061905E07C0892FC4
:108E10008556833008F09FC1812F8F7E86FD02C06A
:108E200076E0972E6FE3F62EF822953619F4F0E4EB
:108E3000FF2A07C0963619F420E8F22A02C09110E2
:108E40009A94F7FE0AC03BE3391518F45CE3B52E9B
:108E500002C0B92CB39427E009C047E0491520F4BB
:108E6000BB2447E0942EF7CF292DBB24C6010496DE
:108E70009D878C87F6016081718182819381AE012B
:108E80004F5F5F4F0B2D0E94024F6C010981202E16
:108E9000332400FF04C003FD02C01DE209C0F1FE3F
:108EA00002C01BE205C0F2FC02C010E001C010E2EB
:108EB000C1018C709070892BB9F1112311F483E0FA
:108EC00001C084E0881510F088240AC0881AF3FCD9
:108ED00007C080E290E0B3010E944D508A94C9F728
:108EE000112329F0812F90E0B3010E944D5023FE01
:108EF00003C00CE810E00EC000E910E00BC0E11464
:108F0000F10409F0805290E0B3010E944D500F5FD0
:108F10001F4F05C0EF2CFF24F0E1EF22FF24F801E2
:108F20008491882361F714C1F7FE12C0BC0C24FEA3
:108F300004C08A81813309F4BA941B141CF0BB2449
:108F4000B3942DC0F8E0FB1550F538E0B32E27C0E0
:108F5000F6FC25C0892D90E08C159D054CF02CEF7A
:108F6000C2162FEFD20624F030E8F32A01C09A94FB
:108F7000992049F0E2E0F0E0EC0FFD1FE90DF11D52
:108F800080818033A1F3F7FE0AC0B92CB394892DF8
:108F900090E0C816D90614F0992401C09C18F7FC7B
:108FA00003C025E030E009C01C141D041CF021E0C2
:108FB00030E003C096012F5F3F4F112311F02F5F68
:108FC0003F4F992029F0892D90E00196280F391FF5
:108FD000882D90E02817390714F0882401C0821AE0
:108FE0004F2C5524C20189709070892B39F008C02C
:108FF00080E290E0B3010E944D508A948820C1F72E
:10900000112329F0812F90E0B3010E944D5043FEBF
:1090100007C008C080E390E0B3010E944D508A94DD
:109020008820C1F7F7FE46C08601D7FE02C000E0E7
:1090300010E076010894E11CF11CE01AF10A41E00D
:1090400050E04C0F5D1FE40EF51E26014B18510831
:10905000892D90E0AA24BB24A81AB90A5FEF0F3F1C
:10906000150729F48EE290E0B3010E944D50C0161E
:10907000D10634F0401651061CF4F701808101C07E
:1090800080E3015010400894E11CF11C0A151B05F7
:109090002CF090E0B3010E944D50E0CF0C151D055F
:1090A00039F49A81963318F4953311F424FE81E350
:1090B00090E04BC08A81813309F00F7E90E0B301CC
:1090C0000E944D509920A1F08EE290E0B3010E94E1
:1090D0004D5012E0E1E0F0E0EC0FFD1FE10FF11D5B
:1090E0001F5F808190E0B3010E944D509A9491F7E8
:1090F00044FC03C085E690E002C085E490E0B30143
:109100000E944D50D7FC05C0C114D10441F404FFA6
:1091100006C0D094C194D108D3948DE201C08BE2F3
:1091200090E0B3010E944D5080E305C08F5F26EFB1
:109130003FEFC20ED31E3AE0C316D104BCF790E055
:10914000B3010E944D50C601C096B3010E944D501C
:10915000CC84DD8452C1933631F0933799F0933546
:1091600009F059C023C0F601808189835E0108940B
:10917000A11CB11C22E030E0C20ED31E21E0E22E81
:10918000F12C12C0F601A080B18016FD03C06FEF74
:109190007FEF02C0692D70E022E030E0C20ED31EE6
:1091A000C5010E9400507C011F7713C0F601A0800A
:1091B000B18016FD03C06FEF7FEF02C0692D70E034
:1091C00022E030E0C20ED31EC5010E94F54F7C01A3
:1091D000106813FF07C01BC080E290E0B3010E943B
:1091E0004D508A94882D90E0E816F906A8F30FC038
:1091F000F50117FD859117FF81915F0190E0B301A3
:109200000E944D5081108A940894E108F108E114FD
:10921000F10471F7F2C0943611F0993689F517FF11
:1092200008C0F601208131814281538184E090E0C1
:109230000AC0F601808191819C01442737FD409549
:10924000542F82E090E0C80ED91E9FE6F92EF1223D
:1092500057FF09C050954095309521953F4F4F4F8E
:109260005F4F90E8F92ACA01B901AE014F5F5F4F25
:109270002AE030E00E941251E82EE889EE1A41C03F
:10928000953721F41F7E2AE030E01CC0197F9F36FD
:1092900061F0903720F4983509F0B2C00FC09037D4
:1092A00039F0983709F0ACC004C028E030E00AC0BB
:1092B000106114FD146020E130E004C014FD16605C
:1092C00020E132E017FF08C0F601608171818281E0
:1092D000938144E050E008C0F60180819181BC0197
:1092E00080E090E042E050E0C40ED51EAE014F5F3A
:1092F0005F4F0E941251E82E5889E51A8FE7F82E29
:10930000F122F6FE0BC08EEFF822E91438F4F4FED9
:1093100007C0F2FC05C09FEEF92202C01E2D01C05D
:10932000192DF4FE0DC0FE01EE0DF11D808180337C
:1093300019F4E9EEFE2208C01F5FF2FE05C003C06B
:109340008F2D867809F01F5F0F2DF3FC14C0F0FEFF
:109350000FC0181510F09E2C0BC09E2C980C911A63
:10936000182D06C080E290E0B3010E944D501F5FAF
:109370001815C0F304C0181510F4811A01C0882410
:1093800004FF0FC080E390E0B3010E944D5002FF44
:109390001DC001FD03C088E790E00EC088E590E0A5
:1093A0000BC0802F867891F001FF02C08BE201C0D4
:1093B00080E2F7FC8DE290E0B3010E944D5006C0C0
:1093C00080E390E0B3010E944D509A94E914C0F3F9
:1093D000EA94E1E0F0E0EC0FFD1FEE0DF11D80815D
:1093E00090E0B3010E944D50EE2091F706C080E25C
:1093F00090E0B3010E944D508A948820C1F799CC27
:10940000F30166817781CB0161960FB6F894DEBFD8
:109410000FBECDBFCF91DF911F910F91FF90EF90C5
:10942000DF90CF90BF90AF909F908F907F906F9084
:109430005F904F903F902F900895FC0120FD08C051
:1094400023FD05C022FF02C07383628351834083E2
:109450000895EF92FF920F931F9344FF02C033E0F1
:1094600011C046FF02C034E00DC0DB01FC01AA0FB1
:10947000BB1FEE1FFF1F1094D1F76A0F7B1F8E1FBB
:109480009F1F31E0660F771F881F991F3150D1F75A
:109490007B018C01E20EF11C011D111DA801970139
:1094A000B701CA011F910F91FF90EF9008950F939C
:1094B0001F93CF93DF938C01C8010E940B50EC01E6
:1094C00097FD08C00E94DA4F892BB1F7CE01B80191
:1094D0000E94F850CE01DF91CF911F910F91089516
:1094E0008F929F92AF92BF92DF92EF92FF920F9373
:1094F0001F93CF93DF935C01EB014A01122F0E946F
:109500000B50AC018B3219F08D3251F41068219759
:1095100009F46DC0C5010E940B50AC0197FD67C0F6
:109520006DEFD62ED1228D2D807301F54033F1F4ED
:10953000219709F447C0C5010E940B50AC0197FD6B
:1095400041C082E0D82A483711F0483559F480E408
:10955000D82A2197B9F1C5010E940B50AC0199237B
:109560002CF430C0D6FC02C080E1D82AEE24FF24BF
:109570008701242F2053283088F0D4FC09C02A30DA
:1095800068F0D6FE05C02F7D822F8151863028F0ED
:10959000CA01B5010E94F85012C02750C801B70196
:1095A0004D2D0E94294A7B018C0182E0D82A219707
:1095B00061F0C5010E940B50AC0197FFDACFD1FCDE
:1095C00004C015C0EE24FF248701D7FE08C0109503
:1095D0000095F094E094E11CF11C011D111DC401E3
:1095E000B801A7012D2D0E941D4A81E001C080E035
:1095F000DF91CF911F910F91FF90EF90DF90BF907F
:10960000AF909F908F9008956F927F928F929F92CC
:10961000AF92BF92CF92DF92EF92FF920F931F9380
:10962000DF93CF93CDB7DEB7A0970FB6F894DEBF28
:109630000FBECDBF5C016B018A017901FE0131963D
:1096400080E2DF011D928A95E9F770E030E060E08A
:1096500040E050E03F01A1E0B0E0F5018381F70177
:1096600083FD259183FF21917F01222309F481C08D
:109670002E3519F44115510569F1872F90E08417B3
:10968000950744F42D3551F12D3221F4332329F47B
:1096900031E021C0332309F4622F322F832F8695C6
:1096A00086958695F301E80FF11D832F87704D0194
:1096B00002C0880C991C8A95E2F720812829208312
:1096C000361711F430E007C0361710F43F5FE6CFCD
:1096D0003150E4CF71E04F5F5F4FBFCF332319F0BC
:1096E0008E8180628E83772359F0FE0131969E0130
:1096F0002F5D3F4F808180958193E217F307D1F76B
:10970000992493943E010894611C711CC5010E9428
:109710000B50AC0197FD25C0869586958695F30183
:10972000E80FF11D808190E09A012770307002C02F
:10973000959587952A95E2F780FD05C0CA01B50188
:109740000E94F8500EC00115110519F0D8014D9373
:109750008D010894C108D1089924C114D104B1F62F
:1097600002C0992031F40115110529F0F801108289
:1097700002C0EE24FF24C701A0960FB6F894DEBF06
:109780000FBECDBFCF91DF911F910F91FF90EF9052
:10979000DF90CF90BF90AF909F908F907F906F9011
:1097A00008952F923F925F926F927F928F929F9235
:1097B000AF92BF92CF92DF92EF92FF920F931F93DF
:1097C000CF93DF933C017B011A010E940B50EC0107
:1097D0008B3239F08D3211F0552411C0B0E85B2E78
:1097E00001C055240894E108F108E114F10409F4DA
:1097F00018C1C3010E940B50EC0197FD12C1CE01AC
:109800000E94E24F8936910521F08E36910599F537
:109810001DC009EA10E01CC00894E108F108E11439
:10982000F10471F0C3010E940B50EC0197FD08C0D8
:109830000E94E24FD81661F0CE01B3010E94F850A9
:1098400020E00C3A120709F0ECC008C006EA10E06C
:10985000F8010F5F1F4FD490DD20F1F6095A104038
:1098600029F080E090E0A0E8BFE7CFC080E090E082
:10987000A0ECBFE7CAC0CC24DD248824992454017D
:10988000AE014053242F4A3038F552E0552A852D39
:1098900090E0AC014870507052FE06C0452B11F5A7
:1098A0000894C11CD11C1EC0452B19F00894C10896
:1098B000D108C501B40140E20E94294A4B015C0174
:1098C00088E9881689E9980689E9A80689E1B80631
:1098D00048F094E0592A06C04E3F81F453FC0EC074
:1098E000E8E05E2A0894E108F108E114F10431F09F
:1098F000C3010E940B50EC0197FFC2CF51FE91C0F3
:10990000C53619F0C53409F046C00894E108F108DD
:10991000E114F10409F485C0C3010E940B50EC016D
:1099200097FD7FC08B3221F08D3269F4F0E15F2A20
:109930000894E108F108E114F10409F472C0C301CC
:109940000E940B50EC01CE01C0970A9708F069C045
:1099500000E010E0B801882777FD8095982FAE01D0
:109960004053242F40E20E94294A8B010894E108C9
:10997000F108E114F10439F0C3010E940B50EC012D
:10998000C0970A9738F3B80154FE03C070956195EB
:109990007F4FC60ED71EEF2831F0D7FD04C0CE0191
:1099A000B3010E94F850C501B4010E945844D7FE8B
:1099B0000DC0A5ECEA2EA0E0FA2ED094C194D108F7
:1099C000D394C0E2D0E000E010E00EC0FDEDEF2E39
:1099D000F0E0FF2EF6CFF701259135914591549196
:1099E0000E945E43CC1ADD0ACC16DD06A0F7D695A0
:1099F000C7950F5F1F4F0630110529F0ECEFFFEF01
:109A0000EE0EFF1EF1CFDC01CB0157FCB058211444
:109A1000310429F0F10180839183A283B38381E033
:109A200001C080E0DF91CF911F910F91FF90EF90E7
:109A3000DF90CF90BF90AF909F908F907F906F906E
:109A40005F903F902F9008955F926F927F928F92D8
:109A50009F92AF92BF92CF92DF92EF92FF920F93BD
:109A60001F93CF93DF934C015B013A01FC011782F6
:109A70001682552404C1812F90E00E94DA4F892B71
:109A800021F0C4010E94574AFAC0153249F4F50189
:109A9000F3FC6591F3FE61915F01653269F415E2B3
:109AA000C4010E940B5097FDF6C0181709F4E7C0D7
:109AB000B4010E94F850F4C06A3219F0162F00E089
:109AC00006C0F3FC1591F3FE11915F0101E0CC2477
:109AD000DD240EC00260B60180E090E040E20E940A
:109AE000294A6B01F501F3FC1591F3FE11915F0119
:109AF000212F20532A3070F301FD04C0CC24CA94D6
:109B0000DC2C04C0C114D10409F4CAC0183621F0F9
:109B10001C3699F4F5010BC0F501F3FC6591F3FED9
:109B20006191683619F05F01162F07C00860046064
:109B3000F3FC1591F3FE11915F01112309F4B0C0FC
:109B400084E990E0612F70E00E94EA4F892B09F4CC
:109B5000A7C0802F00FF03C0EE24FF2407C0F3013D
:109B6000E080F18022E030E0620E731E1E3651F478
:109B7000F4014681578160E070E0C701202F0E9408
:109B80001D4A7DC01336B9F481FD03C011E0C12E1A
:109B9000D12CC4010E940B5097FD7DC0E114F1044B
:109BA00019F0F70181937F010894C108D108C1140D
:109BB000D10479F762C01B3559F4C401B601A7017D
:109BC00095010E94044B5C01009709F056C050C0FB
:109BD000C4010E94574A97FD5EC01F36D1F110376D
:109BE00038F41436A1F11936A9F11835D1F52DC084
:109BF000133751F0143718F4103799F526C015377C
:109C000031F1183771F521C0C4010E940B50EC01ED
:109C100097FD15C00E94DA4F892B29F0CE01B401BF
:109C20000E94F8500CC0E114F10419F0F701C1933F
:109C30007F010894C108D108C114D10429F7E114A7
:109C4000F104D9F0F701108218C0006403C000626B
:109C500001C00061C401B601A701202F0E94704A13
:109C600005C0C401B601A7010E94D14B882329F485
:109C7000F4018381807379F413C000FF5394F401DD
:109C8000F380F501F3FC1591F3FE11915F011123AF
:109C900009F0F1CE05C0552019F42FEF3FEF02C0B7
:109CA000252D30E0C901DF91CF911F910F91FF90D9
:109CB000EF90DF90CF90BF90AF909F908F907F906C
:109CC0006F905F900895629FD001739FF001829F13
:109CD000E00DF11D649FE00DF11D929FF00D839F3B
:109CE000F00D749FF00D659FF00D9927729FB00DD8
:109CF000E11DF91F639FB00DE11DF91FBD01CF01EB
:109D000011240895AA1BBB1B51E107C0AA1FBB1F4A
:109D1000A617B70710F0A61BB70B881F991F5A95F7
:109D2000A9F780959095BC01CD01089597FB092E68
:109D300007260AD077FD04D0E5DF06D000201AF40C
:109D4000709561957F4F0895F6F7909581959F4F97
:109D50000895A1E21A2EAA1BBB1BFD010DC0AA1F6C
:109D6000BB1FEE1FFF1FA217B307E407F50720F084
:109D7000A21BB30BE40BF50B661F771F881F991FFF
:109D80001A9469F760957095809590959B01AC0148
:109D9000BD01CF0108952F923F924F925F926F9233
:109DA0007F928F929F92AF92BF92CF92DF92EF926B
:109DB000FF920F931F93CF93DF93CDB7DEB7CA1BEC
:109DC000DB0B0FB6F894DEBF0FBECDBF09942A8817
:109DD000398848885F846E847D848C849B84AA84BF
:109DE000B984C884DF80EE80FD800C811B81AA814C
:109DF000B981CE0FD11D0FB6F894DEBF0FBECDBF17
:109E0000ED010895283008F027E03327DA01990F93
:109E1000311D87FD916000966105710539F432604E
:109E20002E5F3D9330E32A95E1F708959F3F30F090
:109E300080387105610509F03C5F3C5F3D939130CE
:109E400008F08068911DDF93CF931F930F93FF92CB
:109E5000EF92192F987F9695E92F96959695E90F91
:109E6000FF27E55CFE4F99273327EE24FF24A70147
:109E7000E70105900894079428F4360FE71EF81EB2
:109E8000491F511D660F771F881F991F0694A1F760
:109E90000590079428F4E70EF81E491F561FC11DB0
:109EA000770F881F991F661F0694A1F705900794E6
:109EB00028F4F80E491F561FC71FD11D880F991F80
:109EC000661F771F0694A1F70590079420F4490FA9
:109ED000561FC71FD81F990F661F771F881F06942C
:109EE000A9F784911095177041F0D695C7955795AD
:109EF0004795F794E7941A95C1F7E1EEF0E068947E
:109F00001590159135916591959105907FE2739526
:109F1000E118F10A430B560BC90BD009C0F7E10C4D
:109F2000F11E431F561FC91FD01D7EF4703311F45C
:109F30008A95E6CFE894015030F0080F0AF4002724
:109F4000021708F4202F2395022F7A3328F079E3A3
:109F50007D932A95E9F710C07D932A9589F606949A
:109F600097956795379517951794E118F10A430B64
:109F7000560BC90BD00998F023957E9173957A33CF
:109F800008F070E37C932013B8F77E9170617D93A5
:109F900030F0839571E37D9370E32A95E1F7112406
:109FA000EF90FF900F911F91CF91DF91992787FD3F
:109FB00090950895911194C1803219F0895085507F
:109FC000D0F708959111089581548A5108F4805E64
:109FD000855A0895FC010590061621F00020D9F756
:109FE000C00108953197CF010895FC01059061509B
:109FF00070400110D8F7809590958E0F9F1F08959F
:10A00000FC016150704001900110D8F78095909547
:10A010008E0F9F1F0895CF93DF93EC014B8140FF7C
:10A020001AC046FF0AC04F7B4B838E819F810196E9
:10A030009F838E838A81282F2BC042FF13C0E88123
:10A04000F9818081282F332727FD3095211531058F
:10A0500029F440624B832FEF3FEF1BC03196F98309
:10A06000E88311C0EA85FB85CE0109959C0197FF25
:10A070000AC09B812F5F3F4F11F080E201C080E159
:10A08000892B8B83E8CF8E819F8101969F838E835E
:10A0900030E0C901DF91CF9108950F931F93CF93C3
:10A0A000DF938C01EB018B8181FF1BC082FF0DC010
:10A0B0002E813F818C819D812817390764F4E881C6
:10A0C000F9810193F983E88306C0E885F985802F3B
:10A0D0000995892B31F48E819F8101969F838E8310
:10A0E00002C00FEF1FEFC801DF91CF911F910F91B9
:10A0F0000895DF93CF93CDB7DEB7FE01359661911A
:10A10000719180911A0D90911B0DAF010E946D46C7
:10A11000CF91DF91089560911A0D70911B0D0E94EF
:10A120004D5008950F931F93CF93DF938C01E091CF
:10A130001A0DF0911B0D838181FF21C0C0E0D0E09A
:10A140000DC0E0911A0DF0911B0D20853185BF01E6
:10A15000F9010995892B11F0CFEFDFEFF80181911B
:10A160008F01882371F7E0911A0DF0911B0D208566
:10A1700031858AE0BF01F9010995892B11F0CFEFF4
:10A18000DFEFCE01DF91CF911F910F9108950F93D3
:10A190001F93DF93CF93CDB7DEB72E970FB6F8940A
:10A1A000DEBF0FBECDBF0D891E8986E08C831A836A
:10A1B00009838FEF9FE79E838D839E01275E3F4F2C
:10A1C000CE0101966F89788DA9010E946D462F817D
:10A1D0003885020F131FF80110822E960FB6F894DF
:10A1E000DEBF0FBECDBFCF91DF911F910F910895BC
:10A1F0009C01FB01838180FF11C086FD0FC09FEF92
:10A200002F3F390759F0228380648F7D83838681B5
:10A21000978101979783868330E002C02FEF3FEF4D
:10A22000C9010895FA01AA27283051F1203181F19E
:10A23000E8946F936E7F6E5F7F4F8F4F9F4FAF4F4E
:10A24000B1E03ED0B4E03CD0670F781F891F9A1F61
:10A25000A11D680F791F8A1F911DA11D6A0F711D15
:10A26000811D911DA11D20D009F468943F912AE021
:10A27000269F11243019305D3193DEF6CF01089509
:10A28000462F4770405D4193B3E00FD0C9F7F6CF3A
:10A29000462F4F70405D4A3318F0495D31FD405202
:10A2A000419302D0A9F7EACFB4E0A6959795879598
:10A2B00077956795BA95C9F7009761057105089577
:10A2C0009B01AC010A2E0694579547953795279523
:10A2D000BA95C9F7620F731F841F951FA01D0895BB
:0AA2E000992788270895F894FFCF0E
:10A2EA006D6F64653D31212121004649464F5F6605
:10A2FA006F725F616E676C652069732046554C4CBE
:10A30A00006D6F64653D30212121006765743D252C
:10A31A00642025642025642025640A00252E3473D0
:10A32A0000534443310053444332005344433300FF
:10A33A005344433400534443350053444336005393
:10A34A004443370053444338007478740074656D8D
:10A35A00705B25645D3D25640A002564200D0A00B2
:10A36A00256420006E756D3D25640A00737761705F
:10A37A005F6275666665725B25645D3D25640A00E9
:10A38A002563006D6F646531333220646F6E65003A
:10A39A0074616B65206F7574002A28742B69293DD6
:10A3AA0020005E256420004649464F204973204616
:10A3BA00554C4C0070757420696E002A28702B6900
:10A3CA00293D20002A25642000636F6D6D616E644B
:10A3DA003D25640A004F70656E46696C65282564E0
:10A3EA00295F5F5F5F5F5F5F5F5F5F5F5F5F5F5FA9
:10A3FA005F5F0A004B4F4E444F5F5344435F77728F
:10A40A006974655F5F5F5F5F5F5F4F70656E466926
:10A41A006C65446F6E655F5F5F5F5F5F5F5F5F0084
:10A42A005265636F72642077697468204772696441
:10A43A003D25645F5F5F5F5F5F5F5F5F0A004B4F51
:10A44A004E444F5F5344435F77726974655F5F5F41
:10A45A005F5F5F5F446F6E655F5F5F5F5F5F5F5FF8
:10A46A005F00436C6F736546696C655F5F5F5F5F32
:10A47A005F5F5F5F5F5F5F5F5F5F5F5F004B4F4E76
:10A48A00444F5F5344435F77726974655F5F5F5FF0
:10A49A005F5F5F436C6F736546696C65446F6E6599
:10A4AA005F5F5F5F5F5F5F5F5F0054686520426563
:10A4BA00737420506F736974696F6E00444F4E4510
:10A4CA005F5F5F546865204265737420506F7369DB
:10A4DA0074696F6E5F5F5F00737461727420726576
:10A4EA006164004B4F4E444F5F5344435F72656152
:10A4FA00642020636F64653D25640A00636C6F7392
:10A50A0065207468652066696C650049443D256468
:10A51A0020746F20616E676C653D25640A00506C7B
:10A52A006179696E6720416374696F6E28202564BA
:10A53A0020295F5F5F5F5F5F5F5F5F5F5F0A005059
:10A54A006C6179696E6720416374696F6E28202592
:10A55A006420295F5F5F5F5F446F6E655F5F5F5F67
:10A56A005F0A0053544152545F5F5F5F5F5F5F5FF2
:10A57A005F5F5F5F5F000A0009000900FFFF0000DC
:10A58A0000000000000000000000000000000000C1
:10A59A0000000000000000000000000000000000B1
:10A5AA0000000000000000000003000000000F018E
:10A5BA001D0100000000010002000400060007005F
:10A5CA00080009000A004C1D98211C255C12841CF5
:10A5DA004C1D28236C204C1D00197C150000141EEC
:10A5EA004C1D70172C1A4C1D0000000300000000BF
:10A5FA00F50B030C00002F25732F257300415341DF
:10A60A005F4441544100005C004153415F4441545E
:10A61A0041002CEBFE904D53444F53352E30004EE3
:10A62A004F204E414D4520202020464154333220B0
:10A63A002020004E4F204E414D45202020204641EB
:10A64A0054202020202000464154004641543332F1
:10A65A0000222A2B2C3A3B3C3D3E3F5B5D7C7F002F
:10A66A0001000200040008001000200000000100A0
:10A67A00040010004000000100020000222A2B2CD6
:10A68A002E3A3B3C3D3E3F5B5D7C7F000100000073
:10A69A000000000000000102020303030304040493
:10A6AA000404040404050505050505050505050555
:10A6BA000505050505060606060606060606060635
:10A6CA000606060606060606060606060606060620
:10A6DA000606060606070707070707070707070705
:10A6EA0007070707070707070707070707070707F0
:10A6FA0007070707070707070707070707070707E0
:10A70A0007070707070707070707070707070707CF
:10A71A0007070707070808080808080808080808B4
:10A72A00080808080808080808080808080808089F
:10A73A00080808080808080808080808080808088F
:10A74A00080808080808080808080808080808087F
:10A75A00080808080808080808080808080808086F
:10A76A00080808080808080808080808080808085F
:10A77A00080808080808080808080808080808084F
:10A78A00080808080808080808080808080808083F
:06A79A0008080808080091
:00000001FF
